{
  "address": "0x3d2bD0e15829AA5C362a4144FdF4A1112fa29B5c",
  "abi": [
    {
      "inputs": [
        {
          "internalType": "uint96",
          "name": "_tokensPerNft",
          "type": "uint96"
        },
        {
          "internalType": "address",
          "name": "_lzEndpoint",
          "type": "address"
        },
        {
          "internalType": "address",
          "name": "_delegate",
          "type": "address"
        }
      ],
      "stateMutability": "nonpayable",
      "type": "constructor"
    },
    {
      "inputs": [
        {
          "internalType": "address",
          "name": "target",
          "type": "address"
        }
      ],
      "name": "AddressEmptyCode",
      "type": "error"
    },
    {
      "inputs": [
        {
          "internalType": "address",
          "name": "account",
          "type": "address"
        }
      ],
      "name": "AddressInsufficientBalance",
      "type": "error"
    },
    {
      "inputs": [],
      "name": "ApprovalCallerNotOwnerNorApproved",
      "type": "error"
    },
    {
      "inputs": [],
      "name": "DNAlreadyInitialized",
      "type": "error"
    },
    {
      "inputs": [],
      "name": "FailedInnerCall",
      "type": "error"
    },
    {
      "inputs": [],
      "name": "InsufficientAllowance",
      "type": "error"
    },
    {
      "inputs": [],
      "name": "InsufficientBalance",
      "type": "error"
    },
    {
      "inputs": [],
      "name": "InvalidDelegate",
      "type": "error"
    },
    {
      "inputs": [],
      "name": "InvalidEndpointCall",
      "type": "error"
    },
    {
      "inputs": [],
      "name": "InvalidLocalDecimals",
      "type": "error"
    },
    {
      "inputs": [
        {
          "internalType": "bytes",
          "name": "options",
          "type": "bytes"
        }
      ],
      "name": "InvalidOptions",
      "type": "error"
    },
    {
      "inputs": [],
      "name": "LinkMirrorContractFailed",
      "type": "error"
    },
    {
      "inputs": [],
      "name": "LzTokenUnavailable",
      "type": "error"
    },
    {
      "inputs": [],
      "name": "MirrorAddressIsZero",
      "type": "error"
    },
    {
      "inputs": [
        {
          "internalType": "uint32",
          "name": "eid",
          "type": "uint32"
        }
      ],
      "name": "NoPeer",
      "type": "error"
    },
    {
      "inputs": [
        {
          "internalType": "uint256",
          "name": "msgValue",
          "type": "uint256"
        }
      ],
      "name": "NotEnoughNative",
      "type": "error"
    },
    {
      "inputs": [
        {
          "internalType": "address",
          "name": "addr",
          "type": "address"
        }
      ],
      "name": "OnlyEndpoint",
      "type": "error"
    },
    {
      "inputs": [
        {
          "internalType": "uint32",
          "name": "eid",
          "type": "uint32"
        },
        {
          "internalType": "bytes32",
          "name": "sender",
          "type": "bytes32"
        }
      ],
      "name": "OnlyPeer",
      "type": "error"
    },
    {
      "inputs": [],
      "name": "OnlySelf",
      "type": "error"
    },
    {
      "inputs": [
        {
          "internalType": "address",
          "name": "owner",
          "type": "address"
        }
      ],
      "name": "OwnableInvalidOwner",
      "type": "error"
    },
    {
      "inputs": [
        {
          "internalType": "address",
          "name": "account",
          "type": "address"
        }
      ],
      "name": "OwnableUnauthorizedAccount",
      "type": "error"
    },
    {
      "inputs": [
        {
          "internalType": "address",
          "name": "token",
          "type": "address"
        }
      ],
      "name": "SafeERC20FailedOperation",
      "type": "error"
    },
    {
      "inputs": [],
      "name": "SenderNotMirror",
      "type": "error"
    },
    {
      "inputs": [
        {
          "internalType": "bytes",
          "name": "result",
          "type": "bytes"
        }
      ],
      "name": "SimulationResult",
      "type": "error"
    },
    {
      "inputs": [
        {
          "internalType": "uint256",
          "name": "amountLD",
          "type": "uint256"
        },
        {
          "internalType": "uint256",
          "name": "minAmountLD",
          "type": "uint256"
        }
      ],
      "name": "SlippageExceeded",
      "type": "error"
    },
    {
      "inputs": [],
      "name": "TokenDoesNotExist",
      "type": "error"
    },
    {
      "inputs": [],
      "name": "TotalSupplyOverflow",
      "type": "error"
    },
    {
      "inputs": [],
      "name": "TransferCallerNotOwnerNorApproved",
      "type": "error"
    },
    {
      "inputs": [],
      "name": "TransferFromIncorrectOwner",
      "type": "error"
    },
    {
      "inputs": [],
      "name": "TransferToZeroAddress",
      "type": "error"
    },
    {
      "inputs": [],
      "name": "ZeroTokensPerNft",
      "type": "error"
    },
    {
      "anonymous": false,
      "inputs": [
        {
          "indexed": true,
          "internalType": "address",
          "name": "owner",
          "type": "address"
        },
        {
          "indexed": true,
          "internalType": "address",
          "name": "spender",
          "type": "address"
        },
        {
          "indexed": false,
          "internalType": "uint256",
          "name": "amount",
          "type": "uint256"
        }
      ],
      "name": "Approval",
      "type": "event"
    },
    {
      "anonymous": false,
      "inputs": [
        {
          "components": [
            {
              "internalType": "uint32",
              "name": "eid",
              "type": "uint32"
            },
            {
              "internalType": "uint16",
              "name": "msgType",
              "type": "uint16"
            },
            {
              "internalType": "bytes",
              "name": "options",
              "type": "bytes"
            }
          ],
          "indexed": false,
          "internalType": "struct EnforcedOptionParam[]",
          "name": "_enforcedOptions",
          "type": "tuple[]"
        }
      ],
      "name": "EnforcedOptionSet",
      "type": "event"
    },
    {
      "anonymous": false,
      "inputs": [
        {
          "indexed": false,
          "internalType": "address",
          "name": "inspector",
          "type": "address"
        }
      ],
      "name": "MsgInspectorSet",
      "type": "event"
    },
    {
      "anonymous": false,
      "inputs": [
        {
          "indexed": true,
          "internalType": "bytes32",
          "name": "guid",
          "type": "bytes32"
        },
        {
          "indexed": false,
          "internalType": "uint32",
          "name": "srcEid",
          "type": "uint32"
        },
        {
          "indexed": true,
          "internalType": "address",
          "name": "toAddress",
          "type": "address"
        },
        {
          "indexed": false,
          "internalType": "uint256",
          "name": "amountReceivedLD",
          "type": "uint256"
        }
      ],
      "name": "OFTReceived",
      "type": "event"
    },
    {
      "anonymous": false,
      "inputs": [
        {
          "indexed": true,
          "internalType": "bytes32",
          "name": "guid",
          "type": "bytes32"
        },
        {
          "indexed": false,
          "internalType": "uint32",
          "name": "dstEid",
          "type": "uint32"
        },
        {
          "indexed": true,
          "internalType": "address",
          "name": "fromAddress",
          "type": "address"
        },
        {
          "indexed": false,
          "internalType": "uint256",
          "name": "amountSentLD",
          "type": "uint256"
        },
        {
          "indexed": false,
          "internalType": "uint256",
          "name": "amountReceivedLD",
          "type": "uint256"
        }
      ],
      "name": "OFTSent",
      "type": "event"
    },
    {
      "anonymous": false,
      "inputs": [
        {
          "indexed": true,
          "internalType": "address",
          "name": "previousOwner",
          "type": "address"
        },
        {
          "indexed": true,
          "internalType": "address",
          "name": "newOwner",
          "type": "address"
        }
      ],
      "name": "OwnershipTransferred",
      "type": "event"
    },
    {
      "anonymous": false,
      "inputs": [
        {
          "indexed": false,
          "internalType": "uint32",
          "name": "eid",
          "type": "uint32"
        },
        {
          "indexed": false,
          "internalType": "bytes32",
          "name": "peer",
          "type": "bytes32"
        }
      ],
      "name": "PeerSet",
      "type": "event"
    },
    {
      "anonymous": false,
      "inputs": [
        {
          "indexed": false,
          "internalType": "address",
          "name": "preCrimeAddress",
          "type": "address"
        }
      ],
      "name": "PreCrimeSet",
      "type": "event"
    },
    {
      "anonymous": false,
      "inputs": [
        {
          "indexed": true,
          "internalType": "address",
          "name": "target",
          "type": "address"
        },
        {
          "indexed": false,
          "internalType": "bool",
          "name": "status",
          "type": "bool"
        }
      ],
      "name": "SkipNFTSet",
      "type": "event"
    },
    {
      "anonymous": false,
      "inputs": [
        {
          "indexed": true,
          "internalType": "address",
          "name": "from",
          "type": "address"
        },
        {
          "indexed": true,
          "internalType": "address",
          "name": "to",
          "type": "address"
        },
        {
          "indexed": false,
          "internalType": "uint256",
          "name": "amount",
          "type": "uint256"
        }
      ],
      "name": "Transfer",
      "type": "event"
    },
    {
      "stateMutability": "payable",
      "type": "fallback"
    },
    {
      "inputs": [],
      "name": "SEND",
      "outputs": [
        {
          "internalType": "uint16",
          "name": "",
          "type": "uint16"
        }
      ],
      "stateMutability": "view",
      "type": "function"
    },
    {
      "inputs": [],
      "name": "SEND_AND_CALL",
      "outputs": [
        {
          "internalType": "uint16",
          "name": "",
          "type": "uint16"
        }
      ],
      "stateMutability": "view",
      "type": "function"
    },
    {
      "inputs": [
        {
          "components": [
            {
              "internalType": "uint32",
              "name": "srcEid",
              "type": "uint32"
            },
            {
              "internalType": "bytes32",
              "name": "sender",
              "type": "bytes32"
            },
            {
              "internalType": "uint64",
              "name": "nonce",
              "type": "uint64"
            }
          ],
          "internalType": "struct Origin",
          "name": "origin",
          "type": "tuple"
        }
      ],
      "name": "allowInitializePath",
      "outputs": [
        {
          "internalType": "bool",
          "name": "",
          "type": "bool"
        }
      ],
      "stateMutability": "view",
      "type": "function"
    },
    {
      "inputs": [
        {
          "internalType": "address",
          "name": "owner",
          "type": "address"
        },
        {
          "internalType": "address",
          "name": "spender",
          "type": "address"
        }
      ],
      "name": "allowance",
      "outputs": [
        {
          "internalType": "uint256",
          "name": "",
          "type": "uint256"
        }
      ],
      "stateMutability": "view",
      "type": "function"
    },
    {
      "inputs": [],
      "name": "approvalRequired",
      "outputs": [
        {
          "internalType": "bool",
          "name": "",
          "type": "bool"
        }
      ],
      "stateMutability": "pure",
      "type": "function"
    },
    {
      "inputs": [
        {
          "internalType": "address",
          "name": "spender",
          "type": "address"
        },
        {
          "internalType": "uint256",
          "name": "amount",
          "type": "uint256"
        }
      ],
      "name": "approve",
      "outputs": [
        {
          "internalType": "bool",
          "name": "",
          "type": "bool"
        }
      ],
      "stateMutability": "nonpayable",
      "type": "function"
    },
    {
      "inputs": [
        {
          "internalType": "address",
          "name": "owner",
          "type": "address"
        }
      ],
      "name": "balanceOf",
      "outputs": [
        {
          "internalType": "uint256",
          "name": "",
          "type": "uint256"
        }
      ],
      "stateMutability": "view",
      "type": "function"
    },
    {
      "inputs": [
        {
          "internalType": "uint32",
          "name": "_eid",
          "type": "uint32"
        },
        {
          "internalType": "uint16",
          "name": "_msgType",
          "type": "uint16"
        },
        {
          "internalType": "bytes",
          "name": "_extraOptions",
          "type": "bytes"
        }
      ],
      "name": "combineOptions",
      "outputs": [
        {
          "internalType": "bytes",
          "name": "",
          "type": "bytes"
        }
      ],
      "stateMutability": "view",
      "type": "function"
    },
    {
      "inputs": [],
      "name": "decimalConversionRate",
      "outputs": [
        {
          "internalType": "uint256",
          "name": "",
          "type": "uint256"
        }
      ],
      "stateMutability": "view",
      "type": "function"
    },
    {
      "inputs": [],
      "name": "decimals",
      "outputs": [
        {
          "internalType": "uint8",
          "name": "",
          "type": "uint8"
        }
      ],
      "stateMutability": "pure",
      "type": "function"
    },
    {
      "inputs": [],
      "name": "endpoint",
      "outputs": [
        {
          "internalType": "contract ILayerZeroEndpointV2",
          "name": "",
          "type": "address"
        }
      ],
      "stateMutability": "view",
      "type": "function"
    },
    {
      "inputs": [
        {
          "internalType": "uint32",
          "name": "eid",
          "type": "uint32"
        },
        {
          "internalType": "uint16",
          "name": "msgType",
          "type": "uint16"
        }
      ],
      "name": "enforcedOptions",
      "outputs": [
        {
          "internalType": "bytes",
          "name": "enforcedOption",
          "type": "bytes"
        }
      ],
      "stateMutability": "view",
      "type": "function"
    },
    {
      "inputs": [
        {
          "internalType": "address",
          "name": "a",
          "type": "address"
        }
      ],
      "name": "getSkipNFT",
      "outputs": [
        {
          "internalType": "bool",
          "name": "",
          "type": "bool"
        }
      ],
      "stateMutability": "view",
      "type": "function"
    },
    {
      "inputs": [
        {
          "components": [
            {
              "internalType": "uint32",
              "name": "srcEid",
              "type": "uint32"
            },
            {
              "internalType": "bytes32",
              "name": "sender",
              "type": "bytes32"
            },
            {
              "internalType": "uint64",
              "name": "nonce",
              "type": "uint64"
            }
          ],
          "internalType": "struct Origin",
          "name": "",
          "type": "tuple"
        },
        {
          "internalType": "bytes",
          "name": "",
          "type": "bytes"
        },
        {
          "internalType": "address",
          "name": "_sender",
          "type": "address"
        }
      ],
      "name": "isComposeMsgSender",
      "outputs": [
        {
          "internalType": "bool",
          "name": "",
          "type": "bool"
        }
      ],
      "stateMutability": "view",
      "type": "function"
    },
    {
      "inputs": [
        {
          "internalType": "uint32",
          "name": "_eid",
          "type": "uint32"
        },
        {
          "internalType": "bytes32",
          "name": "_peer",
          "type": "bytes32"
        }
      ],
      "name": "isPeer",
      "outputs": [
        {
          "internalType": "bool",
          "name": "",
          "type": "bool"
        }
      ],
      "stateMutability": "view",
      "type": "function"
    },
    {
      "inputs": [
        {
          "components": [
            {
              "internalType": "uint32",
              "name": "srcEid",
              "type": "uint32"
            },
            {
              "internalType": "bytes32",
              "name": "sender",
              "type": "bytes32"
            },
            {
              "internalType": "uint64",
              "name": "nonce",
              "type": "uint64"
            }
          ],
          "internalType": "struct Origin",
          "name": "_origin",
          "type": "tuple"
        },
        {
          "internalType": "bytes32",
          "name": "_guid",
          "type": "bytes32"
        },
        {
          "internalType": "bytes",
          "name": "_message",
          "type": "bytes"
        },
        {
          "internalType": "address",
          "name": "_executor",
          "type": "address"
        },
        {
          "internalType": "bytes",
          "name": "_extraData",
          "type": "bytes"
        }
      ],
      "name": "lzReceive",
      "outputs": [],
      "stateMutability": "payable",
      "type": "function"
    },
    {
      "inputs": [
        {
          "components": [
            {
              "components": [
                {
                  "internalType": "uint32",
                  "name": "srcEid",
                  "type": "uint32"
                },
                {
                  "internalType": "bytes32",
                  "name": "sender",
                  "type": "bytes32"
                },
                {
                  "internalType": "uint64",
                  "name": "nonce",
                  "type": "uint64"
                }
              ],
              "internalType": "struct Origin",
              "name": "origin",
              "type": "tuple"
            },
            {
              "internalType": "uint32",
              "name": "dstEid",
              "type": "uint32"
            },
            {
              "internalType": "address",
              "name": "receiver",
              "type": "address"
            },
            {
              "internalType": "bytes32",
              "name": "guid",
              "type": "bytes32"
            },
            {
              "internalType": "uint256",
              "name": "value",
              "type": "uint256"
            },
            {
              "internalType": "address",
              "name": "executor",
              "type": "address"
            },
            {
              "internalType": "bytes",
              "name": "message",
              "type": "bytes"
            },
            {
              "internalType": "bytes",
              "name": "extraData",
              "type": "bytes"
            }
          ],
          "internalType": "struct InboundPacket[]",
          "name": "_packets",
          "type": "tuple[]"
        }
      ],
      "name": "lzReceiveAndRevert",
      "outputs": [],
      "stateMutability": "payable",
      "type": "function"
    },
    {
      "inputs": [
        {
          "components": [
            {
              "internalType": "uint32",
              "name": "srcEid",
              "type": "uint32"
            },
            {
              "internalType": "bytes32",
              "name": "sender",
              "type": "bytes32"
            },
            {
              "internalType": "uint64",
              "name": "nonce",
              "type": "uint64"
            }
          ],
          "internalType": "struct Origin",
          "name": "_origin",
          "type": "tuple"
        },
        {
          "internalType": "bytes32",
          "name": "_guid",
          "type": "bytes32"
        },
        {
          "internalType": "bytes",
          "name": "_message",
          "type": "bytes"
        },
        {
          "internalType": "address",
          "name": "_executor",
          "type": "address"
        },
        {
          "internalType": "bytes",
          "name": "_extraData",
          "type": "bytes"
        }
      ],
      "name": "lzReceiveSimulate",
      "outputs": [],
      "stateMutability": "payable",
      "type": "function"
    },
    {
      "inputs": [],
      "name": "mirror",
      "outputs": [
        {
          "internalType": "contract DN404Mirror",
          "name": "",
          "type": "address"
        }
      ],
      "stateMutability": "view",
      "type": "function"
    },
    {
      "inputs": [],
      "name": "mirrorERC721",
      "outputs": [
        {
          "internalType": "address",
          "name": "",
          "type": "address"
        }
      ],
      "stateMutability": "view",
      "type": "function"
    },
    {
      "inputs": [],
      "name": "msgInspector",
      "outputs": [
        {
          "internalType": "address",
          "name": "",
          "type": "address"
        }
      ],
      "stateMutability": "view",
      "type": "function"
    },
    {
      "inputs": [],
      "name": "name",
      "outputs": [
        {
          "internalType": "string",
          "name": "",
          "type": "string"
        }
      ],
      "stateMutability": "pure",
      "type": "function"
    },
    {
      "inputs": [
        {
          "internalType": "uint32",
          "name": "",
          "type": "uint32"
        },
        {
          "internalType": "bytes32",
          "name": "",
          "type": "bytes32"
        }
      ],
      "name": "nextNonce",
      "outputs": [
        {
          "internalType": "uint64",
          "name": "nonce",
          "type": "uint64"
        }
      ],
      "stateMutability": "view",
      "type": "function"
    },
    {
      "inputs": [],
      "name": "oApp",
      "outputs": [
        {
          "internalType": "address",
          "name": "",
          "type": "address"
        }
      ],
      "stateMutability": "view",
      "type": "function"
    },
    {
      "inputs": [],
      "name": "oAppVersion",
      "outputs": [
        {
          "internalType": "uint64",
          "name": "senderVersion",
          "type": "uint64"
        },
        {
          "internalType": "uint64",
          "name": "receiverVersion",
          "type": "uint64"
        }
      ],
      "stateMutability": "pure",
      "type": "function"
    },
    {
      "inputs": [],
      "name": "oftVersion",
      "outputs": [
        {
          "internalType": "bytes4",
          "name": "interfaceId",
          "type": "bytes4"
        },
        {
          "internalType": "uint64",
          "name": "version",
          "type": "uint64"
        }
      ],
      "stateMutability": "pure",
      "type": "function"
    },
    {
      "inputs": [],
      "name": "owner",
      "outputs": [
        {
          "internalType": "address",
          "name": "",
          "type": "address"
        }
      ],
      "stateMutability": "view",
      "type": "function"
    },
    {
      "inputs": [
        {
          "internalType": "uint32",
          "name": "eid",
          "type": "uint32"
        }
      ],
      "name": "peers",
      "outputs": [
        {
          "internalType": "bytes32",
          "name": "peer",
          "type": "bytes32"
        }
      ],
      "stateMutability": "view",
      "type": "function"
    },
    {
      "inputs": [],
      "name": "preCrime",
      "outputs": [
        {
          "internalType": "address",
          "name": "",
          "type": "address"
        }
      ],
      "stateMutability": "view",
      "type": "function"
    },
    {
      "inputs": [
        {
          "components": [
            {
              "internalType": "uint32",
              "name": "dstEid",
              "type": "uint32"
            },
            {
              "internalType": "bytes32",
              "name": "to",
              "type": "bytes32"
            },
            {
              "internalType": "uint256",
              "name": "amountLD",
              "type": "uint256"
            },
            {
              "internalType": "uint256",
              "name": "minAmountLD",
              "type": "uint256"
            },
            {
              "internalType": "bytes",
              "name": "extraOptions",
              "type": "bytes"
            },
            {
              "internalType": "bytes",
              "name": "composeMsg",
              "type": "bytes"
            },
            {
              "internalType": "bytes",
              "name": "oftCmd",
              "type": "bytes"
            }
          ],
          "internalType": "struct SendParam",
          "name": "_sendParam",
          "type": "tuple"
        }
      ],
      "name": "quoteOFT",
      "outputs": [
        {
          "components": [
            {
              "internalType": "uint256",
              "name": "minAmountLD",
              "type": "uint256"
            },
            {
              "internalType": "uint256",
              "name": "maxAmountLD",
              "type": "uint256"
            }
          ],
          "internalType": "struct OFTLimit",
          "name": "oftLimit",
          "type": "tuple"
        },
        {
          "components": [
            {
              "internalType": "int256",
              "name": "feeAmountLD",
              "type": "int256"
            },
            {
              "internalType": "string",
              "name": "description",
              "type": "string"
            }
          ],
          "internalType": "struct OFTFeeDetail[]",
          "name": "oftFeeDetails",
          "type": "tuple[]"
        },
        {
          "components": [
            {
              "internalType": "uint256",
              "name": "amountSentLD",
              "type": "uint256"
            },
            {
              "internalType": "uint256",
              "name": "amountReceivedLD",
              "type": "uint256"
            }
          ],
          "internalType": "struct OFTReceipt",
          "name": "oftReceipt",
          "type": "tuple"
        }
      ],
      "stateMutability": "view",
      "type": "function"
    },
    {
      "inputs": [
        {
          "components": [
            {
              "internalType": "uint32",
              "name": "dstEid",
              "type": "uint32"
            },
            {
              "internalType": "bytes32",
              "name": "to",
              "type": "bytes32"
            },
            {
              "internalType": "uint256",
              "name": "amountLD",
              "type": "uint256"
            },
            {
              "internalType": "uint256",
              "name": "minAmountLD",
              "type": "uint256"
            },
            {
              "internalType": "bytes",
              "name": "extraOptions",
              "type": "bytes"
            },
            {
              "internalType": "bytes",
              "name": "composeMsg",
              "type": "bytes"
            },
            {
              "internalType": "bytes",
              "name": "oftCmd",
              "type": "bytes"
            }
          ],
          "internalType": "struct SendParam",
          "name": "_sendParam",
          "type": "tuple"
        },
        {
          "internalType": "bool",
          "name": "_payInLzToken",
          "type": "bool"
        }
      ],
      "name": "quoteSend",
      "outputs": [
        {
          "components": [
            {
              "internalType": "uint256",
              "name": "nativeFee",
              "type": "uint256"
            },
            {
              "internalType": "uint256",
              "name": "lzTokenFee",
              "type": "uint256"
            }
          ],
          "internalType": "struct MessagingFee",
          "name": "msgFee",
          "type": "tuple"
        }
      ],
      "stateMutability": "view",
      "type": "function"
    },
    {
      "inputs": [],
      "name": "renounceOwnership",
      "outputs": [],
      "stateMutability": "nonpayable",
      "type": "function"
    },
    {
      "inputs": [
        {
          "components": [
            {
              "internalType": "uint32",
              "name": "dstEid",
              "type": "uint32"
            },
            {
              "internalType": "bytes32",
              "name": "to",
              "type": "bytes32"
            },
            {
              "internalType": "uint256",
              "name": "amountLD",
              "type": "uint256"
            },
            {
              "internalType": "uint256",
              "name": "minAmountLD",
              "type": "uint256"
            },
            {
              "internalType": "bytes",
              "name": "extraOptions",
              "type": "bytes"
            },
            {
              "internalType": "bytes",
              "name": "composeMsg",
              "type": "bytes"
            },
            {
              "internalType": "bytes",
              "name": "oftCmd",
              "type": "bytes"
            }
          ],
          "internalType": "struct SendParam",
          "name": "_sendParam",
          "type": "tuple"
        },
        {
          "components": [
            {
              "internalType": "uint256",
              "name": "nativeFee",
              "type": "uint256"
            },
            {
              "internalType": "uint256",
              "name": "lzTokenFee",
              "type": "uint256"
            }
          ],
          "internalType": "struct MessagingFee",
          "name": "_fee",
          "type": "tuple"
        },
        {
          "internalType": "address",
          "name": "_refundAddress",
          "type": "address"
        }
      ],
      "name": "send",
      "outputs": [
        {
          "components": [
            {
              "internalType": "bytes32",
              "name": "guid",
              "type": "bytes32"
            },
            {
              "internalType": "uint64",
              "name": "nonce",
              "type": "uint64"
            },
            {
              "components": [
                {
                  "internalType": "uint256",
                  "name": "nativeFee",
                  "type": "uint256"
                },
                {
                  "internalType": "uint256",
                  "name": "lzTokenFee",
                  "type": "uint256"
                }
              ],
              "internalType": "struct MessagingFee",
              "name": "fee",
              "type": "tuple"
            }
          ],
          "internalType": "struct MessagingReceipt",
          "name": "msgReceipt",
          "type": "tuple"
        },
        {
          "components": [
            {
              "internalType": "uint256",
              "name": "amountSentLD",
              "type": "uint256"
            },
            {
              "internalType": "uint256",
              "name": "amountReceivedLD",
              "type": "uint256"
            }
          ],
          "internalType": "struct OFTReceipt",
          "name": "oftReceipt",
          "type": "tuple"
        }
      ],
      "stateMutability": "payable",
      "type": "function"
    },
    {
      "inputs": [
        {
          "internalType": "string",
          "name": "baseURI_",
          "type": "string"
        }
      ],
      "name": "setBaseURI",
      "outputs": [],
      "stateMutability": "nonpayable",
      "type": "function"
    },
    {
      "inputs": [
        {
          "internalType": "address",
          "name": "_delegate",
          "type": "address"
        }
      ],
      "name": "setDelegate",
      "outputs": [],
      "stateMutability": "nonpayable",
      "type": "function"
    },
    {
      "inputs": [
        {
          "components": [
            {
              "internalType": "uint32",
              "name": "eid",
              "type": "uint32"
            },
            {
              "internalType": "uint16",
              "name": "msgType",
              "type": "uint16"
            },
            {
              "internalType": "bytes",
              "name": "options",
              "type": "bytes"
            }
          ],
          "internalType": "struct EnforcedOptionParam[]",
          "name": "_enforcedOptions",
          "type": "tuple[]"
        }
      ],
      "name": "setEnforcedOptions",
      "outputs": [],
      "stateMutability": "nonpayable",
      "type": "function"
    },
    {
      "inputs": [
        {
          "internalType": "address",
          "name": "_msgInspector",
          "type": "address"
        }
      ],
      "name": "setMsgInspector",
      "outputs": [],
      "stateMutability": "nonpayable",
      "type": "function"
    },
    {
      "inputs": [
        {
          "internalType": "uint32",
          "name": "_eid",
          "type": "uint32"
        },
        {
          "internalType": "bytes32",
          "name": "_peer",
          "type": "bytes32"
        }
      ],
      "name": "setPeer",
      "outputs": [],
      "stateMutability": "nonpayable",
      "type": "function"
    },
    {
      "inputs": [
        {
          "internalType": "address",
          "name": "_preCrime",
          "type": "address"
        }
      ],
      "name": "setPreCrime",
      "outputs": [],
      "stateMutability": "nonpayable",
      "type": "function"
    },
    {
      "inputs": [
        {
          "internalType": "bool",
          "name": "skipNFT",
          "type": "bool"
        }
      ],
      "name": "setSkipNFT",
      "outputs": [],
      "stateMutability": "nonpayable",
      "type": "function"
    },
    {
      "inputs": [],
      "name": "sharedDecimals",
      "outputs": [
        {
          "internalType": "uint8",
          "name": "",
          "type": "uint8"
        }
      ],
      "stateMutability": "view",
      "type": "function"
    },
    {
      "inputs": [],
      "name": "symbol",
      "outputs": [
        {
          "internalType": "string",
          "name": "",
          "type": "string"
        }
      ],
      "stateMutability": "pure",
      "type": "function"
    },
    {
      "inputs": [],
      "name": "token",
      "outputs": [
        {
          "internalType": "address",
          "name": "",
          "type": "address"
        }
      ],
      "stateMutability": "view",
      "type": "function"
    },
    {
      "inputs": [
        {
          "internalType": "uint256",
          "name": "tokenId",
          "type": "uint256"
        }
      ],
      "name": "tokenURI",
      "outputs": [
        {
          "internalType": "string",
          "name": "result",
          "type": "string"
        }
      ],
      "stateMutability": "view",
      "type": "function"
    },
    {
      "inputs": [],
      "name": "totalSupply",
      "outputs": [
        {
          "internalType": "uint256",
          "name": "",
          "type": "uint256"
        }
      ],
      "stateMutability": "view",
      "type": "function"
    },
    {
      "inputs": [
        {
          "internalType": "address",
          "name": "to",
          "type": "address"
        },
        {
          "internalType": "uint256",
          "name": "amount",
          "type": "uint256"
        }
      ],
      "name": "transfer",
      "outputs": [
        {
          "internalType": "bool",
          "name": "",
          "type": "bool"
        }
      ],
      "stateMutability": "nonpayable",
      "type": "function"
    },
    {
      "inputs": [
        {
          "internalType": "address",
          "name": "from",
          "type": "address"
        },
        {
          "internalType": "address",
          "name": "to",
          "type": "address"
        },
        {
          "internalType": "uint256",
          "name": "amount",
          "type": "uint256"
        }
      ],
      "name": "transferFrom",
      "outputs": [
        {
          "internalType": "bool",
          "name": "",
          "type": "bool"
        }
      ],
      "stateMutability": "nonpayable",
      "type": "function"
    },
    {
      "inputs": [
        {
          "internalType": "address",
          "name": "newOwner",
          "type": "address"
        }
      ],
      "name": "transferOwnership",
      "outputs": [],
      "stateMutability": "nonpayable",
      "type": "function"
    },
    {
      "stateMutability": "payable",
      "type": "receive"
    }
  ],
  "transactionHash": "0x947debd6b0c77da9e99d237730b2462e7e33f535fce1d21754ed9c9613d7b912",
  "args": [
    100000,
    "0x6EDCE65403992e310A62460808c4b910D972f10f",
    "0x21aF1185734D213D45C6236146fb81E2b0E8b821"
  ],
  "numDeployments": 1,
  "solcInputHash": "26f8cf99c21513f30b2d007ea553d8c8",
  "bytecode": "0x60e0604052670de0b6b3a76400006080523480156200001d57600080fd5b5060405162005e0538038062005e058339810160408190526200004091620005af565b6012828281818181806001600160a01b0381166200007857604051631e4fbdf760e01b81526000600482015260240160405180910390fd5b6200008381620001e5565b506001600160a01b0380831660a0528116620000b257604051632d618d8160e21b815260040160405180910390fd5b60a05160405163ca5eb5e160e01b81526001600160a01b0383811660048301529091169063ca5eb5e190602401600060405180830381600087803b158015620000fa57600080fd5b505af11580156200010f573d6000803e3d6000fd5b5050505050505050620001276200023560201b60201c565b60ff168360ff1610156200014e576040516301e9714b60e41b815260040160405180910390fd5b6200015b6006846200061c565b6200016890600a6200073b565b60c05250506040513391506200017e9062000584565b6001600160a01b039091168152602001604051809103906000f080158015620001ab573d6000803e3d6000fd5b50600680546001600160a01b0319166001600160a01b03929092169182179055620001dc906000908190866200023a565b50505062000753565b600080546001600160a01b038381166001600160a01b0319831681178455604051919092169283917f8be0079c531659141344cd1fd0a4f28419497f9722a3daafe3b4186f6b6457e09190a35050565b600690565b68a20d6e21d0e52553088054640100000000900463ffffffff16156200027357604051633ab534b960e21b815260040160405180910390fd5b6001600160a01b0383166200029b576040516339a84a7b60e01b815260040160405180910390fd5b620002a6836200042c565b805463ffffffff60201b19166401000000001781556001810180546001600160a01b0385166c01000000000000000000000000026001600160601b039182161790915582166000036200030c5760405163534ea61960e01b815260040160405180910390fd5b8054600160401b600160a01b031916680100000000000000006001600160601b03841602178155841562000425576001600160a01b0384166200036257604051633a954ecd60e21b815260040160405180910390fd5b6b0de0b6b39983494c589bffff851115620003905760405163e5cfe95760e01b815260040160405180910390fd5b6001810180546001600160601b0319166001600160601b0387161790556000620003ba8562000462565b80546001600160a01b03908116600160a01b6001600160601b038a16021782556040518881529192508616906000907fddf252ad1be2c89b69c2b068fc378daa952ba7f163c4a11628f55a4df523b3ef9060200160405180910390a362000423856001620004e0565b505b5050505050565b630f4599e560005233602052602060006024601c6000855af1600160005114166200045f5763d125259c6000526004601cfd5b50565b6001600160a01b038116600090815268a20d6e21d0e5255310602052604081208054909168a20d6e21d0e5255308916b01000000000000000000000090046001169003620004da576001833b15620004b8576002175b825460ff9091166b0100000000000000000000000260ff60581b199091161782555b50919050565b6000620004ed8362000462565b80549091506b01000000000000000000000090046002161515821515146200053957805460ff6b01000000000000000000000080830482166002189091160260ff60581b199091161781555b826001600160a01b03167fb5a1de456fff688115a4f75380060c23c8532d14ff85f687cc871456d64203938360405162000577911515815260200190565b60405180910390a2505050565b610ca7806200515e83390190565b80516001600160a01b0381168114620005aa57600080fd5b919050565b600080600060608486031215620005c557600080fd5b83516001600160601b0381168114620005dd57600080fd5b9250620005ed6020850162000592565b9150620005fd6040850162000592565b90509250925092565b634e487b7160e01b600052601160045260246000fd5b60ff828116828216039081111562000638576200063862000606565b92915050565b600181815b808511156200067f57816000190482111562000663576200066362000606565b808516156200067157918102915b93841c939080029062000643565b509250929050565b600082620006985750600162000638565b81620006a75750600062000638565b8160018114620006c05760028114620006cb57620006eb565b600191505062000638565b60ff841115620006df57620006df62000606565b50506001821b62000638565b5060208310610133831016604e8410600b841016171562000710575081810a62000638565b6200071c83836200063e565b806000190482111562000733576200073362000606565b029392505050565b60006200074c60ff84168362000687565b9392505050565b60805160a05160c05161495d6200080160003960008181610b7801528181612cc501528181612d3a0152612ed2015260008181610a050152818161144e01528181611c97015281816120b6015281816128fe01528181612ba5015281816131dd0152613296015260008181610f2901528181610fb001528181611190015281816122c80152818161235a0152818161250c01528181613049015281816133d9015261344f015261495d6000f3fe6080604052600436106102975760003560e01c806370a082311161015a578063bb0b6a53116100c1578063d045a0dc1161007a578063d045a0dc14610ccf578063d424388514610ce2578063dd62ed3e14610d02578063f2fde38b14610d50578063fc0c546a14610969578063ff7bd03d14610d705761029e565b8063bb0b6a5314610c0e578063bc70b35414610c3b578063bd815db014610c5b578063c7c7f5b314610c6e578063c87b56dd14610c8f578063ca5eb5e114610caf5761029e565b806395d89b411161011357806395d89b4114610b37578063963efcaa14610b665780639f68b96414610b9a578063a9059cbb14610bae578063b731ea0a14610bce578063b98bd07014610bee5761029e565b806370a0823114610a47578063715018a614610a955780637d25a05e14610aaa57806382413eac14610ae5578063857749b014610b055780638da5cb5b14610b195761029e565b80632a6a935d116101fe57806352ae2879116101b757806352ae2879146109695780635535d4611461097c57806355f804b31461099c5780635a0dfe4d146109bc5780635e280f11146109f35780636fc1b31e14610a275761029e565b80632a6a935d1461088d578063313ce567146108ad5780633400288b146108cf5780633b6f743b146108ef578063444d91721461091c5780634ef41efc1461093c5761029e565b8063156a0d0f11610250578063156a0d0f146107bf57806317442b70146107e657806318160ddd146108085780631f5e13341461083857806323b872dd1461084d578063274e430b1461086d5761029e565b806306fdde03146106a6578063095ea7b3146106ed5780630d35b4151461071d578063111ecdad1461074c57806313137d6514610784578063134d4f25146107975761029e565b3661029e57005b68a20d6e21d0e525530860003560e01c63e985e9c581900361034b576001820154600160601b90046001600160a01b031633146102ee5760405163ce5a776b60e01b815260040160405180910390fd5b60443610156102fc57600080fd5b6004356001600160a01b038181166000908152600385016020908152604080832060243594851684529091529020546103489060ff1661033d576000610340565b60015b60ff16610d90565b50505b80636352211e036103b7576001820154600160601b90046001600160a01b0316331461038a5760405163ce5a776b60e01b815260040160405180910390fd5b602436101561039857600080fd5b6004356103b56103a782610d9a565b6001600160a01b0316610d90565b505b8063e5eb36c80361042b576001820154600160601b90046001600160a01b031633146103f65760405163ce5a776b60e01b815260040160405180910390fd5b608436101561040457600080fd5b60043560243560443560643561041c84848484610dd1565b6104266001610d90565b505050505b8063813500fc036104cc576001820154600160601b90046001600160a01b0316331461046a5760405163ce5a776b60e01b815260040160405180910390fd5b606436101561047857600080fd5b6001600160a01b03604435818116600090815268a20d6e21d0e525530b6020908152604080832060043595861684529091529020805460ff19166024351515908117909155906104c86001610d90565b5050505b8063d10b6e0c03610534576001820154600160601b90046001600160a01b0316331461050b5760405163ce5a776b60e01b815260040160405180910390fd5b606436101561051957600080fd5b6004356024356044356105306103a78484846111e0565b5050505b8063081812fc03610592576001820154600160601b90046001600160a01b031633146105735760405163ce5a776b60e01b815260040160405180910390fd5b602436101561058157600080fd5b6004356105906103a7826112b9565b505b8063f5b100ea03610621576001820154600160601b90046001600160a01b031633146105d15760405163ce5a776b60e01b815260040160405180910390fd5b60243610156105df57600080fd5b60043561061f61061a826001600160a01b0316600090815268a20d6e21d0e5255310602052604090205463ffffffff600160801b9091041690565b610d90565b505b8063e2c792810361068f576001820154600160601b90046001600160a01b031633146106605760405163ce5a776b60e01b815260040160405180910390fd5b600436101561066e57600080fd5b68a20d6e21d0e52553085461068f90600160a01b900463ffffffff16610d90565b8063b7a94eb8036106a4576106a46001610d90565b005b3480156106b257600080fd5b5060408051808201909152600c81526b2137b739b0b4902a37b5b2b760a11b60208201525b6040516106e4919061382c565b60405180910390f35b3480156106f957600080fd5b5061070d610708366004613854565b611305565b60405190151581526020016106e4565b34801561072957600080fd5b5061073d610738366004613892565b61137b565b6040516106e4939291906138c6565b34801561075857600080fd5b5060045461076c906001600160a01b031681565b6040516001600160a01b0390911681526020016106e4565b6106a46107923660046139b9565b61144c565b3480156107a357600080fd5b506107ac600281565b60405161ffff90911681526020016106e4565b3480156107cb57600080fd5b506040805162b9270b60e21b815260016020820152016106e4565b3480156107f257600080fd5b50604080516001815260026020820152016106e4565b34801561081457600080fd5b5068a20d6e21d0e5255309546001600160601b03165b6040519081526020016106e4565b34801561084457600080fd5b506107ac600181565b34801561085957600080fd5b5061070d610868366004613a58565b61150c565b34801561087957600080fd5b5061070d610888366004613a99565b6115af565b34801561089957600080fd5b506106a46108a8366004613ac4565b6115fb565b3480156108b957600080fd5b5060125b60405160ff90911681526020016106e4565b3480156108db57600080fd5b506106a46108ea366004613af5565b611608565b3480156108fb57600080fd5b5061090f61090a366004613b11565b61161e565b6040516106e49190613b62565b34801561092857600080fd5b5060065461076c906001600160a01b031681565b34801561094857600080fd5b5068a20d6e21d0e525530954600160601b90046001600160a01b031661076c565b34801561097557600080fd5b503061076c565b34801561098857600080fd5b506106d7610997366004613b8b565b611685565b3480156109a857600080fd5b506106a46109b7366004613bbe565b61172a565b3480156109c857600080fd5b5061070d6109d7366004613af5565b63ffffffff919091166000908152600160205260409020541490565b3480156109ff57600080fd5b5061076c7f000000000000000000000000000000000000000000000000000000000000000081565b348015610a3357600080fd5b506106a4610a42366004613a99565b611744565b348015610a5357600080fd5b5061082a610a62366004613a99565b6001600160a01b0316600090815268a20d6e21d0e52553106020526040902054600160a01b90046001600160601b031690565b348015610aa157600080fd5b506106a46117a1565b348015610ab657600080fd5b50610acd610ac5366004613af5565b600092915050565b6040516001600160401b0390911681526020016106e4565b348015610af157600080fd5b5061070d610b00366004613bff565b6117b5565b348015610b1157600080fd5b5060066108bd565b348015610b2557600080fd5b506000546001600160a01b031661076c565b348015610b4357600080fd5b50604080518082019091526006815265424f4e53414960d01b60208201526106d7565b348015610b7257600080fd5b5061082a7f000000000000000000000000000000000000000000000000000000000000000081565b348015610ba657600080fd5b50600061070d565b348015610bba57600080fd5b5061070d610bc9366004613854565b6117ca565b348015610bda57600080fd5b5060025461076c906001600160a01b031681565b348015610bfa57600080fd5b506106a4610c09366004613ca9565b6117e0565b348015610c1a57600080fd5b5061082a610c29366004613cde565b60016020526000908152604090205481565b348015610c4757600080fd5b506106d7610c56366004613cf9565b6117fa565b6106a4610c69366004613ca9565b6119a2565b610c81610c7c366004613d59565b611b2c565b6040516106e4929190613dc6565b348015610c9b57600080fd5b506106d7610caa366004613e18565b611c27565b348015610cbb57600080fd5b506106a4610cca366004613a99565b611c70565b6106a4610cdd3660046139b9565b611cf6565b348015610cee57600080fd5b506106a4610cfd366004613a99565b611d25565b348015610d0e57600080fd5b5061082a610d1d366004613e31565b6001600160a01b03918216600090815268a20d6e21d0e525530d6020908152604080832093909416825291909152205490565b348015610d5c57600080fd5b506106a4610d6b366004613a99565b611d7b565b348015610d7c57600080fd5b5061070d610d8b366004613e5f565b611db6565b8060005260206000f35b6000610da582611dec565b610dc25760405163677510db60e11b815260040160405180910390fd5b610dcb82611e09565b92915050565b68a20d6e21d0e52553086001600160a01b038416610e0257604051633a954ecd60e21b815260040160405180910390fd5b6000816002016000610e3e84600701610e1b8860011b90565b600381901c600090815260209290925260409091205460059190911b60e0161c90565b63ffffffff1681526020810191909152604001600020546001600160a01b03908116915086168114610e825760405162a1148160e81b815260040160405180910390fd5b856001600160a01b0316836001600160a01b031614610f06576001600160a01b03808716600090815260038401602090815260408083209387168352929052205460ff16610f065760008481526004830160205260409020546001600160a01b03848116911614610f0657604051632ce44b5f60e11b815260040160405180910390fd5b6000610f1187611e5e565b90506000610f1e87611e5e565b8454909150610f5e907f000000000000000000000000000000000000000000000000000000000000000090600160401b90046001600160601b0316613e91565b82548390601490610f80908490600160a01b90046001600160601b0316613ea8565b82546101009290920a6001600160601b03818102199093169183160217909155855483546001600160a01b0381167f0000000000000000000000000000000000000000000000000000000000000000600160401b909304841692909202600160a01b918290048416019092169091021782555061100e60078501600188901b611009848b611eca565b611f6d565b6000868152600485016020908152604080832080546001600160a01b03191690556001600160a01b038b168352600687019091528120835463ffffffff60801b198116600160801b9182900463ffffffff90811660001901169182021785556110959190600381901c600090815260209290925260409091205460059190911b60e0161c90565b6001600160a01b038a166000908152600687016020526040902063ffffffff9190911691506110dc906110d06007880160018b811b01610e1b565b63ffffffff1683611f6d565b8154600163ffffffff600160801b80840482169283019091160263ffffffff60801b1990921691909117835561112e6007870161111c84600190811b0190565b61100960078a0160018d811b01610e1b565b6001600160a01b0389166000908152600687016020526040902061115390828a611f6d565b6111666007870160018a811b0183611f6d565b505083546001600160a01b0388811691908a1690600080516020614908833981519152906111c5907f000000000000000000000000000000000000000000000000000000000000000090600160401b90046001600160601b0316613e91565b60405190815260200160405180910390a35050505050505050565b600068a20d6e21d0e52553088168a20d6e21d0e525530a8161120f68a20d6e21d0e525530f600189901b610e1b565b63ffffffff1681526020810191909152604001600020546001600160a01b03908116915084168114611283576001600160a01b03808216600090815260038401602090815260408083209388168352929052205460ff16611283576040516367d9dca160e11b815260040160405180910390fd5b6000858152600492909201602052604090912080546001600160a01b0319166001600160a01b03871617905590505b9392505050565b60006112c482611dec565b6112e15760405163677510db60e11b815260040160405180910390fd5b50600090815268a20d6e21d0e525530c60205260409020546001600160a01b031690565b60008068a20d6e21d0e525530833600081815260058301602090815260408083206001600160a01b038a16808552908352928190208890555187815293945090927f8c5be1e5ebec7d5bd14f71427d1e84f3dd0314c0f7b2291e5b200ac8c7c3b925910160405180910390a35060019392505050565b604080518082019091526000808252602082015260606113ae604051806040016040528060008152602001600081525090565b60408051808201825260008082526001600160401b03602080840182905284518381529081019094529195509182611409565b6040805180820190915260008152606060208201528152602001906001900390816113e15790505b50935060008061142e604089013560608a013561142960208c018c613cde565b611fa1565b60408051808201909152918252602082015296989597505050505050565b7f00000000000000000000000000000000000000000000000000000000000000006001600160a01b0316331461149c576040516391ac5e4f60e01b81523360048201526024015b60405180910390fd5b602087018035906114b6906114b1908a613cde565b611fe5565b146114f4576114c86020880188613cde565b60405163309afaf360e21b815263ffffffff909116600482015260208801356024820152604401611493565b61150387878787878787612021565b50505050505050565b6001600160a01b038316600090815268a20d6e21d0e525530d6020908152604080832033845290915281205468a20d6e21d0e5255308906000198114611598578084111561156d576040516313be252b60e01b815260040160405180910390fd5b6001600160a01b03861660009081526005830160209081526040808320338452909152902084820390555b6115a3868686612188565b50600195945050505050565b6001600160a01b038116600090815268a20d6e21d0e5255310602052604081208054600160581b900460011682036115e857823b6112b2565b54600160581b9004600216151592915050565b61160533826126b3565b50565b611610612743565b61161a8282612770565b5050565b6040805180820190915260008082526020820152600061164e604085013560608601356114296020880188613cde565b91505060008061165e86846127c5565b909250905061167b6116736020880188613cde565b8383886128e8565b9695505050505050565b6003602090815260009283526040808420909152908252902080546116a990613ede565b80601f01602080910402602001604051908101604052809291908181526020018280546116d590613ede565b80156117225780601f106116f757610100808354040283529160200191611722565b820191906000526020600020905b81548152906001019060200180831161170557829003601f168201915b505050505081565b611732612743565b600561173f828483613f62565b505050565b61174c612743565b600480546001600160a01b0319166001600160a01b0383169081179091556040519081527ff0be4f1e87349231d80c36b33f9e8639658eeaf474014dee15a3e6a4d4414197906020015b60405180910390a150565b6117a9612743565b6117b360006129c9565b565b6001600160a01b03811630145b949350505050565b60006117d7338484612188565b50600192915050565b6117e8612743565b61161a6117f582846140c2565b612a19565b63ffffffff8416600090815260036020908152604080832061ffff8716845290915281208054606092919061182e90613ede565b80601f016020809104026020016040519081016040528092919081815260200182805461185a90613ede565b80156118a75780601f1061187c576101008083540402835291602001916118a7565b820191906000526020600020905b81548152906001019060200180831161188a57829003601f168201915b5050505050905080516000036118f75783838080601f0160208091040260200160405190810160405280939291908181526020018383808284376000920191909152509294506117c29350505050565b60008390036119075790506117c2565b600283106119855761194e84848080601f016020809104026020016040519081016040528093929190818152602001838380828437600092019190915250612b2092505050565b8061195c84600281886141d7565b60405160200161196e93929190614201565b6040516020818303038152906040529150506117c2565b8383604051639a6d49cd60e01b8152600401611493929190614252565b60005b81811015611aab57368383838181106119c0576119c0614266565b90506020028101906119d2919061427c565b9050611a056119e46020830183613cde565b602083013563ffffffff919091166000908152600160205260409020541490565b611a0f5750611aa3565b3063d045a0dc60c08301358360a0810135611a2e61010083018361429d565b611a3f610100890160e08a01613a99565b611a4d6101208a018a61429d565b6040518963ffffffff1660e01b8152600401611a6f97969594939291906142f8565b6000604051808303818588803b158015611a8857600080fd5b505af1158015611a9c573d6000803e3d6000fd5b5050505050505b6001016119a5565b50336001600160a01b0316638e9e70996040518163ffffffff1660e01b8152600401600060405180830381865afa158015611aea573d6000803e3d6000fd5b505050506040513d6000823e601f3d908101601f19168201604052611b12919081019061437e565b604051638351eea760e01b8152600401611493919061382c565b611b34613795565b6040805180820190915260008082526020820152600080611b6b33604089013560608a0135611b6660208c018c613cde565b612b4c565b91509150600080611b7c89846127c5565b9092509050611ba8611b9160208b018b613cde565b8383611ba2368d90038d018d6143eb565b8b612b72565b60408051808201909152858152602080820186905282519298509096503391907f85496b760a4b7f8d66384b9df21b381f5d1b1e79f229a47aaf4c232edc2fe59a90611bf6908d018d613cde565b6040805163ffffffff909216825260208201899052810187905260600160405180910390a350505050935093915050565b606060058054611c3690613ede565b159050611c6b576005611c4883612c7d565b604051602001611c5992919061441d565b60405160208183030381529060405290505b919050565b611c78612743565b60405163ca5eb5e160e01b81526001600160a01b0382811660048301527f0000000000000000000000000000000000000000000000000000000000000000169063ca5eb5e190602401600060405180830381600087803b158015611cdb57600080fd5b505af1158015611cef573d6000803e3d6000fd5b5050505050565b333014611d165760405163029a949d60e31b815260040160405180910390fd5b611503878787878787876114f4565b611d2d612743565b600280546001600160a01b0319166001600160a01b0383169081179091556040519081527fd48d879cef83a1c0bdda516f27b13ddb1b3f8bbac1c9e1511bb2a659c242776090602001611796565b611d83612743565b6001600160a01b038116611dad57604051631e4fbdf760e01b815260006004820152602401611493565b611605816129c9565b6000602082018035906001908390611dce9086613cde565b63ffffffff1681526020810191909152604001600020541492915050565b600080611df883611e09565b6001600160a01b0316141592915050565b600068a20d6e21d0e525530868a20d6e21d0e525530a82611e3768a20d6e21d0e525530f600187901b610e1b565b63ffffffff1681526020810191909152604001600020546001600160a01b03169392505050565b6001600160a01b038116600090815268a20d6e21d0e5255310602052604081208054909168a20d6e21d0e525530891600160581b90046001169003611ec4576001833b15611eaa576002175b825460ff909116600160581b0260ff60581b199091161782555b50919050565b8154600160601b900463ffffffff1668a20d6e21d0e52553086000829003611f665780548190600090611f029063ffffffff166144b4565b825463ffffffff8083166101009490940a848102910219909116179092558554600160601b820263ffffffff60601b199091161786556000908152600283016020526040902080546001600160a01b0386166001600160a01b031990911617905591505b5092915050565b826020528160031c60005260406000206007831660051b815463ffffffff8482841c188116831b8218845550505050505050565b600080611fad85612cc1565b915081905083811015611fdd576040516371c4efed60e01b81526004810182905260248101859052604401611493565b935093915050565b63ffffffff811660009081526001602052604081205480610dcb5760405163f6ff4fb760e01b815263ffffffff84166004820152602401611493565b60006120336120308787612cf8565b90565b9050600061205f8261204d6120488a8a612d10565b612d33565b61205a60208d018d613cde565b612d68565b9050602886111561212657600061209c61207f60608c0160408d016144d7565b61208c60208d018d613cde565b846120978c8c612d90565b612ddb565b604051633e5ac80960e11b81529091506001600160a01b037f00000000000000000000000000000000000000000000000000000000000000001690637cb59012906120f29086908d9060009087906004016144f4565b600060405180830381600087803b15801561210c57600080fd5b505af1158015612120573d6000803e3d6000fd5b50505050505b6001600160a01b038216887fefed6d3500546b29533b128a29e3a94d70788727f0507505ac12eaf2e578fd9c61215f60208d018d613cde565b6040805163ffffffff9092168252602082018690520160405180910390a3505050505050505050565b6001600160a01b0382166121af57604051633a954ecd60e21b815260040160405180910390fd5b68a20d6e21d0e525530860006121c485611e5e565b905060006121d185611e5e565b905061220c6040518060c001604052806000815260200160008152602001600081526020016000815260200160008152602001600081525090565b825463ffffffff600160801b808304821660808501528454041660a08301526001600160601b03600160a01b909104166040820181905285111561226357604051631e9acf1760e31b815260040160405180910390fd5b6040810180518690039081905283546001600160601b03808316600160a01b9081026001600160a01b03938416178755855481810483168a01606087018190528316909102921691909117845560808301518654612300939192600160401b909104167f00000000000000000000000000000000000000000000000000000000000000000290816122f6576122f6614525565b0480821191030290565b81528154600160581b900460021660000361239d57856001600160a01b0316876001600160a01b03160361233c57805160808201510360a08201525b83546060820151612397916001600160601b03600160401b909104167f000000000000000000000000000000000000000000000000000000000000000002908161238857612388614525565b048260a0015180821191030290565b60208201525b60006123b28260200151836000015101612e0d565b8251909150156124ac576001600160a01b0388166000908152600686016020526040902060808301518351875463ffffffff600160a01b808304821684900382160263ffffffff60a01b199092169190911789558754918303908116600160801b0263ffffffff60801b199092169190911787555b60001991909101600381901c60009081526020849052604081205491929160e0600585901b161c63ffffffff1690506124668960070182600080612e47565b600081815260048a016020908152604090912080546001600160a01b0319169055858101805160089390931b60608f901b17600117835291019052808203612427575050505b602082015115612646576001600160a01b03871660009081526006860160209081526040822060a0850151918501519092908201906124eb878c611eca565b895460018b01549192506000916001600160601b03600160401b90920482167f00000000000000000000000000000000000000000000000000000000000000000291168161253b5761253b614525565b8b5460208a015163ffffffff60a01b19821663ffffffff600160a01b80850482169093018116909202178e558b5463ffffffff60801b1916600160801b88831602178c559290910492506401000000009004165b6125a08b600701610e1b8360011b90565b63ffffffff16156125bf57600101818111156125ba575060015b61258f565b6125ca868683611f6d565b6125df8b600701828588806001019950612e47565b612609878e8360008360200151818360081b8560601b171781526020810185602001525050505050565b60010181811115612618575060015b83850361258f578a5463ffffffff9091166401000000000267ffffffff0000000019909116178a5550505050505b8051511561266e57600185015461266e908290600160601b90046001600160a01b0316612e8c565b50856001600160a01b0316876001600160a01b0316600080516020614908833981519152876040516126a291815260200190565b60405180910390a350505050505050565b60006126be83611e5e565b8054909150600160581b90046002161515821515146126f957805460ff600160581b80830482166002189091160260ff60581b199091161781555b826001600160a01b03167fb5a1de456fff688115a4f75380060c23c8532d14ff85f687cc871456d642039383604051612736911515815260200190565b60405180910390a2505050565b6000546001600160a01b031633146117b35760405163118cdaa760e01b8152336004820152602401611493565b63ffffffff8216600081815260016020908152604091829020849055815192835282018390527f238399d427b947898edb290f5ff0f9109849b1c3ba196a42e35f00c50a54b98b910160405180910390a15050565b606080600061282285602001356127db86612ecb565b6127e860a089018961429d565b8080601f016020809104026020016040519081016040528093929190818152602001838380828437600092019190915250612ef792505050565b9093509050600081612835576001612838565b60025b905061285861284a6020880188613cde565b82610c5660808a018a61429d565b6004549093506001600160a01b031680156128de5760405163043a78eb60e01b81526001600160a01b0382169063043a78eb9061289b908890889060040161453b565b602060405180830381865afa1580156128b8573d6000803e3d6000fd5b505050506040513d601f19601f820116820180604052508101906128dc9190614560565b505b5050509250929050565b60408051808201909152600080825260208201527f00000000000000000000000000000000000000000000000000000000000000006001600160a01b031663ddc28c586040518060a001604052808863ffffffff16815260200161294b89611fe5565b8152602001878152602001868152602001851515815250306040518363ffffffff1660e01b815260040161298092919061457d565b6040805180830381865afa15801561299c573d6000803e3d6000fd5b505050506040513d601f19601f820116820180604052508101906129c09190614626565b95945050505050565b600080546001600160a01b038381166001600160a01b0319831681178455604051919092169283917f8be0079c531659141344cd1fd0a4f28419497f9722a3daafe3b4186f6b6457e09190a35050565b60005b8151811015612af057612a4b828281518110612a3a57612a3a614266565b602002602001015160400151612b20565b818181518110612a5d57612a5d614266565b60200260200101516040015160036000848481518110612a7f57612a7f614266565b60200260200101516000015163ffffffff1663ffffffff1681526020019081526020016000206000848481518110612ab957612ab9614266565b60200260200101516020015161ffff1661ffff1681526020019081526020016000209081612ae79190614642565b50600101612a1c565b507fbe4864a8e820971c0247f5992e2da559595f7bf076a21cb5928d443d2a13b674816040516117969190614701565b600281015161ffff811660031461161a5781604051639a6d49cd60e01b8152600401611493919061382c565b600080612b5a858585611fa1565b9092509050612b698683612f71565b94509492505050565b612b7a613795565b6000612b8984600001516131b1565b602085015190915015612ba357612ba384602001516131d9565b7f00000000000000000000000000000000000000000000000000000000000000006001600160a01b0316632637a450826040518060a001604052808b63ffffffff168152602001612bf38c611fe5565b81526020018a815260200189815260200160008960200151111515815250866040518463ffffffff1660e01b8152600401612c2f92919061457d565b60806040518083038185885af1158015612c4d573d6000803e3d6000fd5b50505050506040513d601f19601f82011682018060405250810190612c72919061478c565b979650505050505050565b60606080604051019050602081016040526000815280600019835b928101926030600a8206018453600a900480612c98575050819003601f19909101908152919050565b60007f0000000000000000000000000000000000000000000000000000000000000000612cee81846147d6565b610dcb9190613e91565b6000612d0760208284866141d7565b6112b2916147f8565b6000612d206028602084866141d7565b612d2991614816565b60c01c9392505050565b6000610dcb7f00000000000000000000000000000000000000000000000000000000000000006001600160401b038416613e91565b60006001600160a01b038416612d7e5761dead93505b612d8884846132bb565b509092915050565b6060612d9f82602881866141d7565b8080601f016020809104026020016040519081016040528093929190818152602001838380828437600092019190915250929695505050505050565b606084848484604051602001612df49493929190614846565b6040516020818303038152906040529050949350505050565b6040805180820190915260608152600060208201526040805101828152806020018360051b81016040528183528083602001525050919050565b8163ffffffff168160201b17846020528360021c60005260406000206003851660061b81546001600160401b038482841c188116831b82188455505050505050505050565b81516040810363263c69d68152602080820152815160051b604401915060208183601c84016000875af1600182511416612ec557600081fd5b50505050565b6000610dcb7f0000000000000000000000000000000000000000000000000000000000000000836147d6565b8051606090151580612f40578484604051602001612f2c92919091825260c01b6001600160c01b031916602082015260280190565b604051602081830303815290604052612f67565b84843385604051602001612f579493929190614895565b6040516020818303038152906040525b9150935093915050565b68a20d6e21d0e52553086000612f8684611e5e565b8054909150600160a01b90046001600160601b031680841115612fbc57604051631e9acf1760e31b815260040160405180910390fd5b6001830180548354928690036001600160601b03818116600160a01b026001600160a01b0395861617865583549281168890038082166bffffffffffffffffffffffff199094169390931790935592871660009081526006860160205260408120855487549394919363ffffffff600160801b909204919091169291613077918491600160401b909104167f00000000000000000000000000000000000000000000000000000000000000000287816122f6576122f6614525565b9050801561317757865463ffffffff600160a01b80830482168490039091160263ffffffff60a01b1990911617875560006130b182612e0d565b90508183035b60001993909301600381901c60009081526020869052604081205491949160e0600587901b161c63ffffffff1690506130f68a60070182600080612e47565b600081815260048b016020908152604090912080546001600160a01b0319169055838101805160089390931b60608f901b176001178352910190528084036130b757875463ffffffff60801b1916600160801b63ffffffff8616021788556001890154613174908390600160601b90046001600160a01b0316612e8c565b50505b5050604051868152600091506001600160a01b038816906000805160206149088339815191529060200160405180910390a3505050505050565b60008134146131d5576040516304fb820960e51b8152346004820152602401611493565b5090565b60007f00000000000000000000000000000000000000000000000000000000000000006001600160a01b031663e4fe1d946040518163ffffffff1660e01b8152600401602060405180830381865afa158015613239573d6000803e3d6000fd5b505050506040513d601f19601f8201168201806040525081019061325d91906148d8565b90506001600160a01b038116613286576040516329b99a9560e11b815260040160405180910390fd5b61161a6001600160a01b038216337f0000000000000000000000000000000000000000000000000000000000000000856135e9565b6001600160a01b0382166132e257604051633a954ecd60e21b815260040160405180910390fd5b68a20d6e21d0e525530860006132f784611e5e565b60018301549091506001600160601b031683016b0de0b6b39983494c589bffff84118061332f57506b0de0b6b39983494c589bffff81115b1561334d5760405163e5cfe95760e01b815260040160405180910390fd5b6001830180546001600160601b038084166bffffffffffffffffffffffff19909216919091179091558254600160a01b80820483168701928316026001600160a01b0390911617808455600160581b90046002166000036135b2576001600160a01b03861660009081526006850160205260408120845486549192600160801b90910463ffffffff16917f0000000000000000000000000000000000000000000000000000000000000000600160401b9091046001600160601b031602848161341857613418614525565b049050600061342c83830384841102612e0d565b805151909150156135ad5787546000906001600160601b03600160401b909104167f000000000000000000000000000000000000000000000000000000000000000002878161347d5761347d614525565b049050600061348c898d611eca565b8a5484515163ffffffff60a01b19821663ffffffff600160a01b80850482169093018116909202178d558b5463ffffffff60801b1916600160801b88831602178c559192506401000000009004165b6134ec8b600701610e1b8360011b90565b63ffffffff161561350b5760010182811115613506575060015b6134db565b613516878783611f6d565b61352b8b600701828489806001019a50612e47565b613555848e8360008360200151818360081b8560601b171781526020810185602001525050505050565b60010182811115613564575060015b8486036134db578a5467ffffffff00000000191664010000000063ffffffff831602178b5560018b01546135a9908590600160601b90046001600160a01b0316612e8c565b5050505b505050505b50506040518381526001600160a01b038516906000906000805160206149088339815191529060200160405180910390a350505050565b604080516001600160a01b038581166024830152848116604483015260648083018590528351808403909101815260849092019092526020810180516001600160e01b03166323b872dd60e01b179052612ec59186919060009061364f9084168361369d565b905080516000141580156136745750808060200190518101906136729190614560565b155b1561173f57604051635274afe760e01b81526001600160a01b0384166004820152602401611493565b60606112b28383600084600080856001600160a01b031684866040516136c391906148f5565b60006040518083038185875af1925050503d8060008114613700576040519150601f19603f3d011682016040523d82523d6000602084013e613705565b606091505b509150915061167b868383606082613725576137208261376c565b6112b2565b815115801561373c57506001600160a01b0384163b155b1561376557604051639996b31560e01b81526001600160a01b0385166004820152602401611493565b50806112b2565b80511561377c5780518082602001fd5b604051630a12f52160e11b815260040160405180910390fd5b60405180606001604052806000801916815260200160006001600160401b031681526020016137d7604051806040016040528060008152602001600081525090565b905290565b60005b838110156137f75781810151838201526020016137df565b50506000910152565b600081518084526138188160208601602086016137dc565b601f01601f19169290920160200192915050565b6020815260006112b26020830184613800565b6001600160a01b038116811461160557600080fd5b6000806040838503121561386757600080fd5b82356138728161383f565b946020939093013593505050565b600060e08284031215611ec457600080fd5b6000602082840312156138a457600080fd5b81356001600160401b038111156138ba57600080fd5b6117c284828501613880565b8351815260208085015190820152600060a08201604060a0604085015281865180845260c08601915060c08160051b8701019350602080890160005b838110156139415788870360bf1901855281518051885283015183880187905261392e87890182613800565b9750509382019390820190600101613902565b505087516060880152505050602085015160808501525090506117c2565b600060608284031215611ec457600080fd5b60008083601f84011261398357600080fd5b5081356001600160401b0381111561399a57600080fd5b6020830191508360208285010111156139b257600080fd5b9250929050565b600080600080600080600060e0888a0312156139d457600080fd5b6139de898961395f565b96506060880135955060808801356001600160401b0380821115613a0157600080fd5b613a0d8b838c01613971565b909750955060a08a01359150613a228261383f565b90935060c08901359080821115613a3857600080fd5b50613a458a828b01613971565b989b979a50959850939692959293505050565b600080600060608486031215613a6d57600080fd5b8335613a788161383f565b92506020840135613a888161383f565b929592945050506040919091013590565b600060208284031215613aab57600080fd5b81356112b28161383f565b801515811461160557600080fd5b600060208284031215613ad657600080fd5b81356112b281613ab6565b803563ffffffff81168114611c6b57600080fd5b60008060408385031215613b0857600080fd5b61387283613ae1565b60008060408385031215613b2457600080fd5b82356001600160401b03811115613b3a57600080fd5b613b4685828601613880565b9250506020830135613b5781613ab6565b809150509250929050565b815181526020808301519082015260408101610dcb565b803561ffff81168114611c6b57600080fd5b60008060408385031215613b9e57600080fd5b613ba783613ae1565b9150613bb560208401613b79565b90509250929050565b60008060208385031215613bd157600080fd5b82356001600160401b03811115613be757600080fd5b613bf385828601613971565b90969095509350505050565b60008060008060a08587031215613c1557600080fd5b613c1f868661395f565b935060608501356001600160401b03811115613c3a57600080fd5b613c4687828801613971565b9094509250506080850135613c5a8161383f565b939692955090935050565b60008083601f840112613c7757600080fd5b5081356001600160401b03811115613c8e57600080fd5b6020830191508360208260051b85010111156139b257600080fd5b60008060208385031215613cbc57600080fd5b82356001600160401b03811115613cd257600080fd5b613bf385828601613c65565b600060208284031215613cf057600080fd5b6112b282613ae1565b60008060008060608587031215613d0f57600080fd5b613d1885613ae1565b9350613d2660208601613b79565b925060408501356001600160401b03811115613d4157600080fd5b613d4d87828801613971565b95989497509550505050565b60008060008385036080811215613d6f57600080fd5b84356001600160401b03811115613d8557600080fd5b613d9187828801613880565b9450506040601f1982011215613da657600080fd5b506020840191506060840135613dbb8161383f565b809150509250925092565b600060c082019050835182526001600160401b0360208501511660208301526040840151613e01604084018280518252602090810151910152565b5082516080830152602083015160a08301526112b2565b600060208284031215613e2a57600080fd5b5035919050565b60008060408385031215613e4457600080fd5b8235613e4f8161383f565b91506020830135613b578161383f565b600060608284031215613e7157600080fd5b6112b2838361395f565b634e487b7160e01b600052601160045260246000fd5b8082028115828204841417610dcb57610dcb613e7b565b6001600160601b03828116828216039080821115611f6657611f66613e7b565b634e487b7160e01b600052604160045260246000fd5b600181811c90821680613ef257607f821691505b602082108103611ec457634e487b7160e01b600052602260045260246000fd5b601f82111561173f576000816000526020600020601f850160051c81016020861015613f3b5750805b601f850160051c820191505b81811015613f5a57828155600101613f47565b505050505050565b6001600160401b03831115613f7957613f79613ec8565b613f8d83613f878354613ede565b83613f12565b6000601f841160018114613fc15760008515613fa95750838201355b600019600387901b1c1916600186901b178355611cef565b600083815260209020601f19861690835b82811015613ff25786850135825560209485019460019092019101613fd2565b508682101561400f5760001960f88860031b161c19848701351681555b505060018560011b0183555050505050565b604051606081016001600160401b038111828210171561404357614043613ec8565b60405290565b604080519081016001600160401b038111828210171561404357614043613ec8565b604051601f8201601f191681016001600160401b038111828210171561409357614093613ec8565b604052919050565b60006001600160401b038211156140b4576140b4613ec8565b50601f01601f191660200190565b60006001600160401b03808411156140dc576140dc613ec8565b8360051b60206140ed81830161406b565b86815291850191818101903684111561410557600080fd5b865b848110156141cb5780358681111561411f5760008081fd5b880160603682900312156141335760008081fd5b61413b614021565b61414482613ae1565b8152614151868301613b79565b86820152604080830135898111156141695760008081fd5b929092019136601f84011261417e5760008081fd5b823561419161418c8261409b565b61406b565b81815236898387010111156141a65760008081fd5b818986018a830137600091810189019190915290820152845250918301918301614107565b50979650505050505050565b600080858511156141e757600080fd5b838611156141f457600080fd5b5050820193919092039150565b600084516142138184602089016137dc565b8201838582376000930192835250909392505050565b81835281816020850137506000828201602090810191909152601f909101601f19169091010190565b6020815260006117c2602083018486614229565b634e487b7160e01b600052603260045260246000fd5b6000823561013e1983360301811261429357600080fd5b9190910192915050565b6000808335601e198436030181126142b457600080fd5b8301803591506001600160401b038211156142ce57600080fd5b6020019150368190038213156139b257600080fd5b6001600160401b038116811461160557600080fd5b63ffffffff61430689613ae1565b1681526020880135602082015260006040890135614323816142e3565b6001600160401b03811660408401525087606083015260e0608083015261434e60e083018789614229565b6001600160a01b03861660a084015282810360c0840152614370818587614229565b9a9950505050505050505050565b60006020828403121561439057600080fd5b81516001600160401b038111156143a657600080fd5b8201601f810184136143b757600080fd5b80516143c561418c8261409b565b8181528560208385010111156143da57600080fd5b6129c08260208301602086016137dc565b6000604082840312156143fd57600080fd5b614405614049565b82358152602083013560208201528091505092915050565b600080845461442b81613ede565b60018281168015614443576001811461445857614487565b60ff1984168752821515830287019450614487565b8860005260208060002060005b8581101561447e5781548a820152908401908201614465565b50505082870194505b50505050835161449b8183602088016137dc565b64173539b7b760d91b9101908152600501949350505050565b600063ffffffff8083168181036144cd576144cd613e7b565b6001019392505050565b6000602082840312156144e957600080fd5b81356112b2816142e3565b60018060a01b038516815283602082015261ffff8316604082015260806060820152600061167b6080830184613800565b634e487b7160e01b600052601260045260246000fd5b60408152600061454e6040830185613800565b82810360208401526129c08185613800565b60006020828403121561457257600080fd5b81516112b281613ab6565b6040815263ffffffff8351166040820152602083015160608201526000604084015160a060808401526145b360e0840182613800565b90506060850151603f198483030160a08501526145d08282613800565b60809690960151151560c08501525050506001600160a01b039190911660209091015290565b60006040828403121561460857600080fd5b614610614049565b9050815181526020820151602082015292915050565b60006040828403121561463857600080fd5b6112b283836145f6565b81516001600160401b0381111561465b5761465b613ec8565b61466f816146698454613ede565b84613f12565b602080601f8311600181146146a4576000841561468c5750858301515b600019600386901b1c1916600185901b178555613f5a565b600085815260208120601f198616915b828110156146d3578886015182559484019460019091019084016146b4565b50858210156146f15787850151600019600388901b60f8161c191681555b5050505050600190811b01905550565b600060208083018184528085518083526040925060408601915060408160051b87010184880160005b8381101561477e57888303603f190185528151805163ffffffff1684528781015161ffff1688850152860151606087850181905261476a81860183613800565b96890196945050509086019060010161472a565b509098975050505050505050565b60006080828403121561479e57600080fd5b6147a6614021565b8251815260208301516147b8816142e3565b60208201526147ca84604085016145f6565b60408201529392505050565b6000826147f357634e487b7160e01b600052601260045260246000fd5b500490565b80356020831015610dcb57600019602084900360031b1b1692915050565b6001600160c01b0319813581811691600885101561483e5780818660080360031b1b83161692505b505092915050565b6001600160401b0360c01b8560c01b16815263ffffffff60e01b8460e01b16600882015282600c8201526000825161488581602c8501602087016137dc565b91909101602c0195945050505050565b8481526001600160401b0360c01b8460c01b166020820152826028820152600082516148c88160488501602087016137dc565b9190910160480195945050505050565b6000602082840312156148ea57600080fd5b81516112b28161383f565b600082516142938184602087016137dc56feddf252ad1be2c89b69c2b068fc378daa952ba7f163c4a11628f55a4df523b3efa2646970667358221220e3b2c9144788356ae22871dca4a6c4535ba2d06106be6e10ed592f6f04ddcf6b64736f6c63430008160033608060405234801561001057600080fd5b50604051610ca7380380610ca783398101604081905261002f9161005c565b683602298b8c10b0123180546001600160a01b0319166001600160a01b039290921691909117905561008c565b60006020828403121561006e57600080fd5b81516001600160a01b038116811461008557600080fd5b9392505050565b610c0c8061009b6000396000f3fe6080604052600436106100ec5760003560e01c80636352211e1161008a578063a22cb46511610059578063a22cb465146103e8578063b88d4fde14610408578063c87b56dd14610428578063e985e9c514610448576100f3565b80636352211e1461037e57806370a082311461039e57806395d89b41146103be57806397e5311c146103d3576100f3565b8063095ea7b3116100c6578063095ea7b31461030857806318160ddd1461032857806323b872dd1461034b57806342842e0e1461036b576100f3565b806301ffc9a71461025c57806306fdde03146102ae578063081812fc146102d0576100f3565b366100f357005b683602298b8c10b0123060003560e01c63263c69d68190036101bf5781546001600160a01b0316331461013957604051631b1e598960e11b815260040160405180910390fd5b602036103d60003e6004356024018036103d60003e602081033560051b81018036103d60003e5b8082146101b25781358060601c816001168260a01b60a81c811583028284027fddf252ad1be2c89b69c2b068fc378daa952ba7f163c4a11628f55a4df523b3ef600038a4505050816020019150610160565b5050600160005260206000f35b80630f4599e50361025a5760018201546001600160a01b0316156102155760018201546001600160a01b03166004356001600160a01b031614610215576040516362cf623d60e11b815260040160405180910390fd5b81546001600160a01b03161561023e57604051635fb2b52360e11b815260040160405180910390fd5b81546001600160a01b0319163317825560016000908152602090f35b005b34801561026857600080fd5b50610299610277366004610996565b6301ffc9a760e09190911c9081146380ac58cd821417635b5e139f9091141790565b60405190151581526020015b60405180910390f35b3480156102ba57600080fd5b506102c3610468565b6040516102a591906109c7565b3480156102dc57600080fd5b506102f06102eb366004610a16565b6104c2565b6040516001600160a01b0390911681526020016102a5565b34801561031457600080fd5b5061025a610323366004610a4b565b610509565b34801561033457600080fd5b5061033d61058f565b6040519081526020016102a5565b34801561035757600080fd5b5061025a610366366004610a75565b6105cd565b61025a610379366004610a75565b61065c565b34801561038a57600080fd5b506102f0610399366004610a16565b61068e565b3480156103aa57600080fd5b5061033d6103b9366004610ab1565b6106c8565b3480156103ca57600080fd5b506102c3610712565b3480156103df57600080fd5b506102f0610744565b3480156103f457600080fd5b5061025a610403366004610acc565b610779565b34801561041457600080fd5b5061025a610423366004610b08565b6107fc565b34801561043457600080fd5b506102c3610443366004610a16565b610857565b34801561045457600080fd5b50610299610463366004610ba3565b6108b7565b60606000610474610744565b905060405191506306fdde036000526000806004601c845afa61049a573d6000833e3d82fd5b60206000803e6020600051833e8151602060005101602084013e815160208301016040525090565b6000806104cd610744565b905063081812fc60005282602052602060006024601c845afa601f3d11166104fc573d60006040513e3d604051fd5b5050600c5160601c919050565b6000610513610744565b90508260601b60601c925060405163d10b6e0c600052836020528260405233606052602060006064601c34865af1601f3d1116610553573d6000823e3d81fd5b806040525060006060528183600c5160601c7f8c5be1e5ebec7d5bd14f71427d1e84f3dd0314c0f7b2291e5b200ac8c7c3b925600038a4505050565b60008061059a610744565b905063e2c79281600052602060006004601c845afa601f3d11166105c5573d60006040513e3d604051fd5b505060005190565b60006105d7610744565b90508360601b60601c93508260601b60601c925060405163e5eb36c881528460208201528360408201528260608201523360808201526020816084601c840134865af160018251141661062d573d6000823e3d81fd5b508183857fddf252ad1be2c89b69c2b068fc378daa952ba7f163c4a11628f55a4df523b3ef600038a450505050565b6106678383836105cd565b813b15610689576106898383836040518060200160405280600081525061090a565b505050565b600080610699610744565b9050636352211e60005282602052602060006024601c845afa601f3d11166104fc573d60006040513e3d604051fd5b6000806106d3610744565b90508260601b60601c60205263f5b100ea600052602060006024601c845afa601f3d1116610708573d60006040513e3d604051fd5b5050600051919050565b6060600061071e610744565b905060405191506395d89b416000526000806004601c845afa61049a573d6000833e3d82fd5b683602298b8c10b01230546001600160a01b03168061077657604051632d9523d760e11b815260040160405180910390fd5b90565b6000610783610744565b90508260601b60601c925060405163813500fc6000528360205282151560405233606052602060006064601c34865af1600160005114166107c7573d6000823e3d81fd5b83337f17307eab39ab6107e8899845ad3d59bd9653f200f220920489ca2b5937696c3160206040a36040525050600060605250565b6108078585856105cd565b833b156108505761085085858585858080601f01602080910402602001604051908101604052809392919081815260200183838082843760009201919091525061090a92505050565b5050505050565b60606000610863610744565b905060405191508260205263c87b56dd6000526000806024601c845afa61088d573d6000833e3d82fd5b60206000803e6020600051833e8151602060005101602084013e8151602083010160405250919050565b6000806108c2610744565b9050604051836040528460601b602c5263e985e9c560601b600c52602060006044601c855afa601f3d11166108fa573d6000823e3d81fd5b6040525050600051151592915050565b60405163150b7a028082523360208301528560601b60601c604083015283606083015260808083015282518060a08401528015610951578060c08401826020870160045afa505b60208360a48301601c860160008a5af1610974573d15610974573d6000843e3d83fd5b508060e01b82511461098e5763d1a57ed66000526004601cfd5b505050505050565b6000602082840312156109a857600080fd5b81356001600160e01b0319811681146109c057600080fd5b9392505050565b60006020808352835180602085015260005b818110156109f5578581018301518582016040015282016109d9565b506000604082860101526040601f19601f8301168501019250505092915050565b600060208284031215610a2857600080fd5b5035919050565b80356001600160a01b0381168114610a4657600080fd5b919050565b60008060408385031215610a5e57600080fd5b610a6783610a2f565b946020939093013593505050565b600080600060608486031215610a8a57600080fd5b610a9384610a2f565b9250610aa160208501610a2f565b9150604084013590509250925092565b600060208284031215610ac357600080fd5b6109c082610a2f565b60008060408385031215610adf57600080fd5b610ae883610a2f565b915060208301358015158114610afd57600080fd5b809150509250929050565b600080600080600060808688031215610b2057600080fd5b610b2986610a2f565b9450610b3760208701610a2f565b935060408601359250606086013567ffffffffffffffff80821115610b5b57600080fd5b818801915088601f830112610b6f57600080fd5b813581811115610b7e57600080fd5b896020828501011115610b9057600080fd5b9699959850939650602001949392505050565b60008060408385031215610bb657600080fd5b610bbf83610a2f565b9150610bcd60208401610a2f565b9050925092905056fea264697066735822122032442aacaffe3b486ef9d53e3f187b99ee0e751b62105d77993a2dfbac5798de64736f6c63430008160033",
  "devdoc": {
    "errors": {
      "AddressEmptyCode(address)": [
        {
          "details": "There's no code at `target` (it is not a contract)."
        }
      ],
      "AddressInsufficientBalance(address)": [
        {
          "details": "The ETH balance of the account is not enough to perform the operation."
        }
      ],
      "ApprovalCallerNotOwnerNorApproved()": [
        {
          "details": "Thrown when setting an NFT token approval and the caller is not the owner or an approved operator."
        }
      ],
      "DNAlreadyInitialized()": [
        {
          "details": "Thrown when attempting to double-initialize the contract."
        }
      ],
      "FailedInnerCall()": [
        {
          "details": "A call to an address target failed. The target may have reverted."
        }
      ],
      "InsufficientAllowance()": [
        {
          "details": "Thrown when a spender attempts to transfer tokens with an insufficient allowance."
        }
      ],
      "InsufficientBalance()": [
        {
          "details": "Thrown when attempting to transfer or burn more tokens than sender's balance."
        }
      ],
      "LinkMirrorContractFailed()": [
        {
          "details": "Thrown when the link call to the mirror contract reverts."
        }
      ],
      "MirrorAddressIsZero()": [
        {
          "details": "Thrown when the mirror address provided for initialization is the zero address."
        }
      ],
      "OwnableInvalidOwner(address)": [
        {
          "details": "The owner is not a valid owner account. (eg. `address(0)`)"
        }
      ],
      "OwnableUnauthorizedAccount(address)": [
        {
          "details": "The caller account is not authorized to perform an operation."
        }
      ],
      "SafeERC20FailedOperation(address)": [
        {
          "details": "An operation with an ERC20 token failed."
        }
      ],
      "SenderNotMirror()": [
        {
          "details": "Thrown when the caller for a fallback NFT function is not the mirror contract."
        }
      ],
      "TokenDoesNotExist()": [
        {
          "details": "Thrown when checking the owner or approved address for an non-existent NFT."
        }
      ],
      "TotalSupplyOverflow()": [
        {
          "details": "Thrown when minting an amount of tokens that would overflow the max tokens."
        }
      ],
      "TransferCallerNotOwnerNorApproved()": [
        {
          "details": "Thrown when transferring an NFT and the caller is not the owner or an approved operator."
        }
      ],
      "TransferFromIncorrectOwner()": [
        {
          "details": "Thrown when transferring an NFT and the from address is not the current owner."
        }
      ],
      "TransferToZeroAddress()": [
        {
          "details": "Thrown when attempting to transfer tokens to the zero address."
        }
      ],
      "ZeroTokensPerNft()": [
        {
          "details": "Thrown when the tokensPerNft is set to zero."
        }
      ]
    },
    "events": {
      "Approval(address,address,uint256)": {
        "details": "Emitted when `amount` tokens is approved by `owner` to be used by `spender`."
      },
      "PreCrimeSet(address)": {
        "details": "Emitted when the preCrime contract address is set.",
        "params": {
          "preCrimeAddress": "The address of the preCrime contract."
        }
      },
      "SkipNFTSet(address,bool)": {
        "details": "Emitted when `target` sets their skipNFT flag to `status`."
      },
      "Transfer(address,address,uint256)": {
        "details": "Emitted when `amount` tokens is transferred from `from` to `to`."
      }
    },
    "kind": "dev",
    "methods": {
      "allowInitializePath((uint32,bytes32,uint64))": {
        "details": "This indicates to the endpoint that the OApp has enabled msgs for this particular path to be received.This defaults to assuming if a peer has been set, its initialized. Can be overridden by the OApp if there is other logic to determine this.",
        "params": {
          "origin": "The origin information containing the source endpoint and sender address."
        },
        "returns": {
          "_0": "Whether the path has been initialized."
        }
      },
      "allowance(address,address)": {
        "details": "Returns the amount of tokens that `spender` can spend on behalf of `owner`."
      },
      "approvalRequired()": {
        "details": "In the case of OFT where the contract IS the token, approval is NOT required.",
        "returns": {
          "_0": "requiresApproval Needs approval of the underlying token implementation."
        }
      },
      "approve(address,uint256)": {
        "details": "Sets `amount` as the allowance of `spender` over the caller's tokens. Emits a {Approval} event."
      },
      "balanceOf(address)": {
        "details": "Returns the amount of tokens owned by `owner`."
      },
      "combineOptions(uint32,uint16,bytes)": {
        "details": "If there is an enforced lzReceive option: - {gasLimit: 200k, msg.value: 1 ether} AND a caller supplies a lzReceive option: {gasLimit: 100k, msg.value: 0.5 ether} - The resulting options will be {gasLimit: 300k, msg.value: 1.5 ether} when the message is executed on the remote lzReceive() function.This presence of duplicated options is handled off-chain in the verifier/executor.",
        "params": {
          "_eid": "The endpoint ID.",
          "_extraOptions": "Additional options passed by the caller.",
          "_msgType": "The OAPP message type."
        },
        "returns": {
          "_0": "options The combination of caller specified options AND enforced options."
        }
      },
      "decimals()": {
        "details": "Returns the decimals places of the token. Always 18."
      },
      "getSkipNFT(address)": {
        "details": "Returns true if account `a` will skip NFT minting on token mints and transfers. Returns false if account `a` will mint NFTs on token mints and transfers."
      },
      "isComposeMsgSender((uint32,bytes32,uint64),bytes,address)": {
        "details": "_origin The origin information containing the source endpoint and sender address.  - srcEid: The source chain endpoint ID.  - sender: The sender address on the src chain.  - nonce: The nonce of the message._message The lzReceive payload.Applications can optionally choose to implement separate composeMsg senders that are NOT the bridging layer.The default sender IS the OAppReceiver implementer.",
        "params": {
          "_sender": "The sender address."
        },
        "returns": {
          "_0": "isSender Is a valid sender."
        }
      },
      "isPeer(uint32,bytes32)": {
        "details": "Check if the peer is considered 'trusted' by the OApp.Enables OAppPreCrimeSimulator to check whether a potential Inbound Packet is from a trusted source.",
        "params": {
          "_eid": "The endpoint ID to check.",
          "_peer": "The peer to check."
        },
        "returns": {
          "_0": "Whether the peer passed is considered 'trusted' by the OApp."
        }
      },
      "lzReceive((uint32,bytes32,uint64),bytes32,bytes,address,bytes)": {
        "details": "Entry point for receiving messages or packets from the endpoint.Entry point for receiving msg/packet from the LayerZero endpoint.",
        "params": {
          "_executor": "The address of the executor for the received message.",
          "_extraData": "Additional arbitrary data provided by the corresponding executor.",
          "_guid": "The unique identifier for the received LayerZero message.",
          "_message": "The payload of the received message.",
          "_origin": "The origin information containing the source endpoint and sender address.  - srcEid: The source chain endpoint ID.  - sender: The sender address on the src chain.  - nonce: The nonce of the message."
        }
      },
      "lzReceiveAndRevert(((uint32,bytes32,uint64),uint32,address,bytes32,uint256,address,bytes,bytes)[])": {
        "details": "Interface for pre-crime simulations. Always reverts at the end with the simulation results.WARNING: MUST revert at the end with the simulation results.Gives the preCrime implementation the ability to mock sending packets to the lzReceive function, WITHOUT actually executing them.",
        "params": {
          "_packets": "An array of InboundPacket objects representing received packets to be delivered."
        }
      },
      "lzReceiveSimulate((uint32,bytes32,uint64),bytes32,bytes,address,bytes)": {
        "details": "Is effectively an internal function because msg.sender must be address(this). Allows resetting the call stack for 'internal' calls.",
        "params": {
          "_executor": "The executor address for the packet.",
          "_extraData": "Additional data for the packet.",
          "_guid": "The unique identifier of the packet.",
          "_message": "The message payload of the packet.",
          "_origin": "The origin information containing the source endpoint and sender address.  - srcEid: The source chain endpoint ID.  - sender: The sender address on the src chain.  - nonce: The nonce of the message."
        }
      },
      "mirrorERC721()": {
        "details": "Returns the address of the mirror NFT contract."
      },
      "name()": {
        "details": "Returns the name of the token."
      },
      "nextNonce(uint32,bytes32)": {
        "details": "_srcEid The source endpoint ID._sender The sender address.The path nonce starts from 1. If 0 is returned it means that there is NO nonce ordered enforcement.Is required by the off-chain executor to determine the OApp expects msg execution is ordered.This is also enforced by the OApp.By default this is NOT enabled. ie. nextNonce is hardcoded to return 0.",
        "returns": {
          "nonce": "The next nonce."
        }
      },
      "oApp()": {
        "details": "Retrieves the address of the OApp contract.The simulator contract is the base contract for the OApp by default.If the simulator is a separate contract, override this function.",
        "returns": {
          "_0": "The address of the OApp contract."
        }
      },
      "oAppVersion()": {
        "returns": {
          "receiverVersion": "The version of the OAppReceiver.sol implementation.",
          "senderVersion": "The version of the OAppSender.sol implementation."
        }
      },
      "oftVersion()": {
        "details": "interfaceId: This specific interface ID is '0x02e49c2c'.version: Indicates a cross-chain compatible msg encoding with other OFTs.If a new feature is added to the OFT cross-chain msg encoding, the version will be incremented. ie. localOFT version(x,1) CAN send messages to remoteOFT version(x,1)",
        "returns": {
          "interfaceId": "The interface ID.",
          "version": "The version."
        }
      },
      "owner()": {
        "details": "Returns the address of the current owner."
      },
      "quoteOFT((uint32,bytes32,uint256,uint256,bytes,bytes,bytes))": {
        "params": {
          "_sendParam": "The parameters for the send operation."
        },
        "returns": {
          "oftFeeDetails": "The details of OFT fees.",
          "oftLimit": "The OFT limit information.",
          "oftReceipt": "The OFT receipt information."
        }
      },
      "quoteSend((uint32,bytes32,uint256,uint256,bytes,bytes,bytes),bool)": {
        "details": "MessagingFee: LayerZero msg fee  - nativeFee: The native fee.  - lzTokenFee: The lzToken fee.",
        "params": {
          "_payInLzToken": "Flag indicating whether the caller is paying in the LZ token.",
          "_sendParam": "The parameters for the send() operation."
        },
        "returns": {
          "msgFee": "The calculated LayerZero messaging fee from the send() operation."
        }
      },
      "renounceOwnership()": {
        "details": "Leaves the contract without owner. It will not be possible to call `onlyOwner` functions. Can only be called by the current owner. NOTE: Renouncing ownership will leave the contract without an owner, thereby disabling any functionality that is only available to the owner."
      },
      "send((uint32,bytes32,uint256,uint256,bytes,bytes,bytes),(uint256,uint256),address)": {
        "details": "Executes the send operation.MessagingReceipt: LayerZero msg receipt  - guid: The unique identifier for the sent message.  - nonce: The nonce of the sent message.  - fee: The LayerZero fee incurred for the message.",
        "params": {
          "_fee": "The calculated fee for the send() operation.      - nativeFee: The native fee.      - lzTokenFee: The lzToken fee.",
          "_refundAddress": "The address to receive any excess funds.",
          "_sendParam": "The parameters for the send operation."
        },
        "returns": {
          "msgReceipt": "The receipt for the send operation.",
          "oftReceipt": "The OFT receipt information."
        }
      },
      "setDelegate(address)": {
        "details": "Only the owner/admin of the OApp can call this function.Provides the ability for a delegate to set configs, on behalf of the OApp, directly on the Endpoint contract.",
        "params": {
          "_delegate": "The address of the delegate to be set."
        }
      },
      "setEnforcedOptions((uint32,uint16,bytes)[])": {
        "details": "Sets the enforced options for specific endpoint and message type combinations.Only the owner/admin of the OApp can call this function.Provides a way for the OApp to enforce things like paying for PreCrime, AND/OR minimum dst lzReceive gas amounts etc.These enforced options can vary as the potential options/execution on the remote may differ as per the msgType. eg. Amount of lzReceive() gas necessary to deliver a lzCompose() message adds overhead you dont want to pay if you are only making a standard LayerZero message ie. lzReceive() WITHOUT sendCompose().",
        "params": {
          "_enforcedOptions": "An array of EnforcedOptionParam structures specifying enforced options."
        }
      },
      "setMsgInspector(address)": {
        "details": "Sets the message inspector address for the OFT.This is an optional contract that can be used to inspect both 'message' and 'options'.Set it to address(0) to disable it, or set it to a contract address to enable it.",
        "params": {
          "_msgInspector": "The address of the message inspector."
        }
      },
      "setPeer(uint32,bytes32)": {
        "details": "Only the owner/admin of the OApp can call this function.Indicates that the peer is trusted to send LayerZero messages to this OApp.Set this to bytes32(0) to remove the peer address.Peer is a bytes32 to accommodate non-evm chains.",
        "params": {
          "_eid": "The endpoint ID.",
          "_peer": "The address of the peer to be associated with the corresponding endpoint."
        }
      },
      "setPreCrime(address)": {
        "details": "Sets the preCrime contract address.",
        "params": {
          "_preCrime": "The address of the preCrime contract."
        }
      },
      "setSkipNFT(bool)": {
        "details": "Sets the caller's skipNFT flag to `skipNFT` Emits a {SkipNFTSet} event."
      },
      "sharedDecimals()": {
        "details": "Retrieves the shared decimals of the OFT.Sets an implicit cap on the amount of tokens, over uint64.max() will need some sort of outbound cap / totalSupply cap Lowest common decimal denominator between chains. Defaults to 6 decimal places to provide up to 18,446,744,073,709.551615 units (max uint64). For tokens exceeding this totalSupply(), they will need to override the sharedDecimals function with something smaller. ie. 4 sharedDecimals would be 1,844,674,407,370,955.1615",
        "returns": {
          "_0": "The shared decimals of the OFT."
        }
      },
      "symbol()": {
        "details": "Returns the symbol of the token."
      },
      "token()": {
        "details": "Retrieves the address of the underlying ERC20 implementation.In the case of OFT, address(this) and erc20 are the same contract.",
        "returns": {
          "_0": "The address of the OFT token."
        }
      },
      "totalSupply()": {
        "details": "Returns the amount of tokens in existence."
      },
      "transfer(address,uint256)": {
        "details": "Transfer `amount` tokens from the caller to `to`. Will burn sender NFTs if balance after transfer is less than the amount required to support the current NFT balance. Will mint NFTs to `to` if the recipient's new balance supports additional NFTs ***AND*** the `to` address's skipNFT flag is set to false. Requirements: - `from` must at least have `amount`. Emits a {Transfer} event."
      },
      "transferFrom(address,address,uint256)": {
        "details": "Transfers `amount` tokens from `from` to `to`. Note: Does not update the allowance if it is the maximum uint256 value. Will burn sender NFTs if balance after transfer is less than the amount required to support the current NFT balance. Will mint NFTs to `to` if the recipient's new balance supports additional NFTs ***AND*** the `to` address's skipNFT flag is set to false. Requirements: - `from` must at least have `amount`. - The caller must have at least `amount` of allowance to transfer the tokens of `from`. Emits a {Transfer} event."
      },
      "transferOwnership(address)": {
        "details": "Transfers ownership of the contract to a new account (`newOwner`). Can only be called by the current owner."
      }
    },
    "version": 1
  },
  "userdoc": {
    "kind": "user",
    "methods": {
      "allowInitializePath((uint32,bytes32,uint64))": {
        "notice": "Checks if the path initialization is allowed based on the provided origin."
      },
      "approvalRequired()": {
        "notice": "Indicates whether the OFT contract requires approval of the 'token()' to send."
      },
      "combineOptions(uint32,uint16,bytes)": {
        "notice": "Combines options for a given endpoint and message type."
      },
      "endpoint()": {
        "notice": "Retrieves the LayerZero endpoint associated with the OApp."
      },
      "isComposeMsgSender((uint32,bytes32,uint64),bytes,address)": {
        "notice": "Indicates whether an address is an approved composeMsg sender to the Endpoint."
      },
      "nextNonce(uint32,bytes32)": {
        "notice": "Retrieves the next nonce for a given source endpoint and sender address."
      },
      "oAppVersion()": {
        "notice": "Retrieves the OApp version information."
      },
      "oftVersion()": {
        "notice": "Retrieves interfaceID and the version of the OFT."
      },
      "peers(uint32)": {
        "notice": "Retrieves the peer (OApp) associated with a corresponding endpoint."
      },
      "quoteOFT((uint32,bytes32,uint256,uint256,bytes,bytes,bytes))": {
        "notice": "Provides a quote for OFT-related operations."
      },
      "quoteSend((uint32,bytes32,uint256,uint256,bytes,bytes,bytes),bool)": {
        "notice": "Provides a quote for the send() operation."
      },
      "setDelegate(address)": {
        "notice": "Sets the delegate address for the OApp."
      },
      "setPeer(uint32,bytes32)": {
        "notice": "Sets the peer address (OApp instance) for a corresponding endpoint."
      }
    },
    "version": 1
  },
  "storageLayout": {
    "storage": [
      {
        "astId": 3687,
        "contract": "contracts/BonsaiOFT.sol:BonsaiOFT",
        "label": "_owner",
        "offset": 0,
        "slot": "0",
        "type": "t_address"
      },
      {
        "astId": 1390,
        "contract": "contracts/BonsaiOFT.sol:BonsaiOFT",
        "label": "peers",
        "offset": 0,
        "slot": "1",
        "type": "t_mapping(t_uint32,t_bytes32)"
      },
      {
        "astId": 2166,
        "contract": "contracts/BonsaiOFT.sol:BonsaiOFT",
        "label": "preCrime",
        "offset": 0,
        "slot": "2",
        "type": "t_address"
      },
      {
        "astId": 2006,
        "contract": "contracts/BonsaiOFT.sol:BonsaiOFT",
        "label": "enforcedOptions",
        "offset": 0,
        "slot": "3",
        "type": "t_mapping(t_uint32,t_mapping(t_uint16,t_bytes_storage))"
      },
      {
        "astId": 2659,
        "contract": "contracts/BonsaiOFT.sol:BonsaiOFT",
        "label": "msgInspector",
        "offset": 0,
        "slot": "4",
        "type": "t_address"
      },
      {
        "astId": 4545,
        "contract": "contracts/BonsaiOFT.sol:BonsaiOFT",
        "label": "_baseURI",
        "offset": 0,
        "slot": "5",
        "type": "t_string_storage"
      },
      {
        "astId": 4548,
        "contract": "contracts/BonsaiOFT.sol:BonsaiOFT",
        "label": "mirror",
        "offset": 0,
        "slot": "6",
        "type": "t_contract(DN404Mirror)7880"
      }
    ],
    "types": {
      "t_address": {
        "encoding": "inplace",
        "label": "address",
        "numberOfBytes": "20"
      },
      "t_bytes32": {
        "encoding": "inplace",
        "label": "bytes32",
        "numberOfBytes": "32"
      },
      "t_bytes_storage": {
        "encoding": "bytes",
        "label": "bytes",
        "numberOfBytes": "32"
      },
      "t_contract(DN404Mirror)7880": {
        "encoding": "inplace",
        "label": "contract DN404Mirror",
        "numberOfBytes": "20"
      },
      "t_mapping(t_uint16,t_bytes_storage)": {
        "encoding": "mapping",
        "key": "t_uint16",
        "label": "mapping(uint16 => bytes)",
        "numberOfBytes": "32",
        "value": "t_bytes_storage"
      },
      "t_mapping(t_uint32,t_bytes32)": {
        "encoding": "mapping",
        "key": "t_uint32",
        "label": "mapping(uint32 => bytes32)",
        "numberOfBytes": "32",
        "value": "t_bytes32"
      },
      "t_mapping(t_uint32,t_mapping(t_uint16,t_bytes_storage))": {
        "encoding": "mapping",
        "key": "t_uint32",
        "label": "mapping(uint32 => mapping(uint16 => bytes))",
        "numberOfBytes": "32",
        "value": "t_mapping(t_uint16,t_bytes_storage)"
      },
      "t_string_storage": {
        "encoding": "bytes",
        "label": "string",
        "numberOfBytes": "32"
      },
      "t_uint16": {
        "encoding": "inplace",
        "label": "uint16",
        "numberOfBytes": "2"
      },
      "t_uint32": {
        "encoding": "inplace",
        "label": "uint32",
        "numberOfBytes": "4"
      }
    }
  }
}